:1000000009C1000038C1000036C1000034C1000041
:1000100032C1000030C100002EC100002CC1000020
:100020002AC1000028C1000026C1000024C1000030
:1000300022C1000020C100001EC100001CC1000040
:100040001AC100000C948B3D16C1000014C10000C1
:100050000C94323310C100000EC100000C94983F84
:100060000AC100000C94A4420C94DA4204C10000BE
:1000700002C1000000C10000FEC00000FCC0000082
:100080000C94B83DF8C00000F6C00000F4C00000B9
:100090000C9430430C946643EEC000000C94B23BC9
:1000A000EAC00000E8C000000C94E53DE4C0000098
:1000B000E2C00000E0C00000DEC000000C94123E70
:1000C000DAC00000D8C00000D6C000000C94BC43C9
:1000D0000C94F243D0C000000C9448440C947E442D
:1000E000CAC0000005A84CCDB2D44EB93836A9021A
:1000F0000C50B9918688083CA6AAAA2ABE00000026
:10010000803F00000A0B02090C0D0E0807030401D2
:1001100000000000000000000000000000000000DF
:1001200000000000000000000000000000001211AC
:1001300010000000000000000000000000000000AF
:10014000000000000000000001021020200808103C
:100150002040102040800201020108040201010237
:100160000408102040808040201008040201800410
:10017000020180402010080402010804020101026B
:10018000040810204080010204081020408005056A
:100190000505070508080808020202020A0A0808FD
:1001A000040404040101010101010101030303032B
:1001B00003030303040707070C0C0C0C0C0C0C0CBA
:1001C0000202020206060606060606060B0B0B0BCB
:1001D0000B0B0B0B00002200250028002B002E002B
:1001E0003100340002010000050108010B0100008C
:1001F0002100240027002A002D00300033000101D7
:100200000000040107010A014E011B3903438F431B
:100210001B44A74411241FBECFEFD1E2DEBFCDBFE8
:1002200000E00CBF13E0A0E0B2E0E2ECFBE800E08D
:100230000BBF02C007900D92AA39B107D9F72BE086
:10024000AAE9B3E001C01D92A333B207E1F711E0C0
:10025000CAE0D1E000E006C021970109802FFE012D
:100260000E94AE45C430D10780E00807A9F70E947C
:1002700055340C94DF45C4CE70E023E0829FC0016A
:10028000112486569C4F0C94033F70E023E0829F1C
:10029000C001112486569C4F0C943F3F0F931F932F
:1002A000CF93DF93CAE9D3E00EEB13E0CE010E94B7
:1002B0003F3E23960C171D07C9F7DF91CF911F9181
:1002C0000F910895CF92DF92EF92FF926B017C0124
:1002D000C114D104E104F10469F480910002811198
:1002E00009C080910202909103020E948C3881E043
:1002F00080930002C601880F991F880F991F8050B4
:100300009E4FFF90EF90DF90CF900895009781F07F
:10031000FC012181211104C040EA56E861E070E04F
:10032000FC01828193810E949B3890E080E00895D7
:1003300088E090E008954F925F926F927F928F9243
:100340009F92AF92BF92CF92DF92EF92FF920F9364
:100350001F93CF93DF930097C9F1280139017A01E8
:10036000EC01402F8A819B810E9419398A819B81EF
:10037000DC01ED91FC910084F185E02D1995892B2C
:1003800001F16701812C912C54018A819B81DC0150
:10039000ED91FC910084F185E02D1995892B91F167
:1003A00084149504A604B70469F18A819B81DC0159
:1003B000ED91FC910284F385E02D19958F3F98070C
:1003C000C1F484E0F70111928A95E9F788E090E0A2
:1003D000DF91CF911F910F91FF90EF90DF90CF9021
:1003E000BF90AF909F908F907F906F905F904F9055
:1003F0000895FFEF8F1A9F0AAF0ABF0AD6018D93A7
:100400006D01C3CF90E080E0E3CF8F929F92AF92D7
:10041000BF92CF92DF92EF920F931F93CF93DF9310
:100420000097F1F06A01EC018A819B810E949E385D
:100430008A819B81DC01ED91FC910280F381E02DAA
:10044000A801B60119958A819B8160E0E11001C085
:1004500061E00E94A838882389F08250823088F0B9
:1004600088E090E0DF91CF911F910F91EF90DF90A6
:10047000CF90BF90AF909F908F90089590E080E0D4
:10048000F1CF84E090E0EECF08958130910571F0D6
:100490001CF4892B39F008958230910551F00397AF
:1004A00059F0089581EB97E00C9444428EE498E073
:1004B000FBCF8BEE98E0F8CF88E899E0F5CF8F92EC
:1004C0009F92AF92BF92CF92DF92EF92FF926B0119
:1004D0007C010E94E23F4B015C010E94E23F6819EF
:1004E00079098A099B09C616D706E806F906A8F70E
:1004F000FF90EF90DF90CF90BF90AF909F908F9044
:1005000008950C94E23F90E080E008950F931F93CC
:10051000009709F489C06115710509F485C000913F
:10052000CC021091CD022091CE023091CF020E3F2D
:100530001F4F2F4F3F4F09F068C04FEF5FEFBA01D9
:100540004093CC025093CD026093CE027093CF02C1
:100550004091CC025091CD026091CE027091CF02B9
:10056000DC011296ED91FC9180819181A281B38191
:100570008093480490934904A0934A04B0934B0499
:1005800084819581A681B78180934404909345042A
:10059000A0934604B093470480859185A285B385D6
:1005A0008093400490934104A0934204B093430489
:1005B00084859585A685B78580933C0490933D04FA
:1005C000A0933E04B0933F04109238041092390473
:1005D00010923A0410923B040E9437178CE597E181
:1005E0009093BF038093BE039093C1038093C00395
:1005F0000E942616009731F421E030E030934D043C
:1006000020934C041F910F9108950091CC021091FA
:10061000CD022091CE023091CF02DB010D931D93CC
:100620002D933C93139794CF8FEF9FEFEBCF8F9247
:100630009F92AF92BF92CF92DF92EF92FF921F9361
:10064000CF93DF934B015C0110914F0482E090E067
:1006500090934D0480934C0481149104A104B1043F
:1006600041F480914F04811104C080914E04C1E097
:100670008111C0E0C12CD12C760180914F048111F1
:1006800006C080914E04811102C0CC23D9F083E0D2
:1006900090E090934D0480934C04CC2381F1CCE9FD
:1006A000DFEF111102C00E94C01ACE01DF91CF917D
:1006B0001F91FF90EF90DF90CF90BF90AF909F90F1
:1006C0008F9008956AE070E080E090E00E9413400F
:1006D00080E1C80E87E2D81EE11CF11C8FEF88165E
:1006E0009806A806B80631F0C1E08C149D04AE044B
:1006F000BF0408F0C0E080E00E945A16BECFD0E0F0
:10070000C0E0CFCFCF92DF92EF92FF920F931F9373
:10071000CF93DF938F3F910511F008F051C02091E6
:100720004C0430914D042330310539F020914C04B4
:1007300030914D042130310531F424E030E0309324
:100740004D0420934C046A017B01EC018230910539
:10075000A8F011E0AE01C701B6010E942516AB0159
:10076000BC01CE011123F9F0DF91CF911F910F91C0
:10077000FF90EF90DF90CF900C94E91C8C01000F5C
:10078000111F02541C4FD8018D919C91892B09F3A4
:100790000E94F31C0297E9F6D801ED91FC91CE017D
:1007A0001995182FD7CF0E940B1D90E080E0DF91A4
:1007B000CF911F910F91FF90EF90DF90CF90089510
:1007C0008FEF9FEFF4CF80E00C945A16CF93DF9316
:1007D00086E090E090934D0480934C040E94B31601
:1007E000EC01EEEBF3E084E0DF011D928A95E9F77E
:1007F0000E94581A10924D0410924C04CE01DF91C1
:10080000CF91089580914E04089580913704089502
:100810006093CC027093CD028093CE029093CF026E
:1008200090E080E00895CF92DF92EF92FF926B010B
:100830007C019F7720E030E040E859E50E94563582
:1008400087FF2BC020E030E040E05FE3C701B60146
:100850000E94F33687FD0EC020E030E040E05FE309
:10086000C701B6010E94DF34FF90EF90DF90CF9078
:100870000C942B3620E030E040E05FEBC701B6017E
:100880000E94F336181684F420E030E0A901C70175
:10089000B6010E94F7366B017C01C701B601FF90DB
:1008A000EF90DF90CF90089520E030E040E05FE3EC
:1008B000C701B6010E94DE34FF90EF90DF90CF9029
:1008C0000C9443354F925F926F927F928F929F92DA
:1008D000AF92BF92CF92DF92EF92FF920F931F934E
:1008E000CF93DF93CDB7DEB7A6970FB6F894DEBFF0
:1008F0000FBECDBF6091F20A7091F30A8091F40AA5
:100900009091F50A0E94F035209118023091190259
:1009100040911A0250911B020E94DF349B01AC01EE
:100920000E94DF342BED3FE049E450E40E94F736AB
:100930002091140230911502409116025091170235
:100940000E945A350E945A3720910C0230910D02B4
:1009500040910E0250910F020E94F7362091100232
:100960003091110240911202509113020E94DF3423
:100970006D8F7E8F8F8F98A320E030E044EB52E4A0
:100980000E94DF346B017C0120E030E0A9010E946D
:10099000563587FFC2C71DA26DA180E076DC60914D
:1009A000F60A7091F70A8091F80A9091F90A0E946C
:1009B000F035209128023091290240912A0250916D
:1009C0002B020E94DF349B01AC010E94DF342BED2F
:1009D0003FE049E450E40E94F73620912402309130
:1009E000250240912602509127020E945A350E940A
:1009F0005A3720911C0230911D0240911E025091E5
:100A00001F020E94F736209120023091210240916E
:100A10002202509123020E94DF346D8F7E8F8F8FD0
:100A200098A320E030E044EB52E40E94DF346B01F5
:100A30007C0120E030E0A9010E94563587FF9DC768
:100A40001DA26DA181E021DC6091FA0A7091FB0A80
:100A50008091FC0A9091FD0A0E94F03520913802A5
:100A60003091390240913A0250913B020E94DF34AA
:100A70009B01AC010E94DF342BED3FE049E450E4E0
:100A80000E94F736209134023091350240913602AF
:100A9000509137020E945A350E945A3720912C02F9
:100AA00030912D0240912E0250912F020E94F73674
:100AB0002091300230913102409132025091330244
:100AC0000E94DF346D8F7E8F8F8F98A320E030E0FF
:100AD00044EB52E40E94DF346B017C0120E030E003
:100AE000A9010E94563587FF78C71DA26DA182E03B
:100AF000CCDB6091FE0A7091FF0A8091000B90910F
:100B0000010B0E94F035209148023091490240913A
:100B10004A0250914B020E94DF349B01AC010E94BB
:100B2000DF342BED3FE049E450E40E94F73620919A
:100B300044023091450240914602509147020E9482
:100B40005A350E945A3720913C0230913D02409123
:100B50003E0250913F020E94F736209140023091B0
:100B6000410240914202509143020E94DF346D8F56
:100B70007E8F8F8F98A320E030E044EB52E40E94F8
:100B8000DF346B017C0120E030E0A9010E94563582
:100B900087FF53C71DA26DA183E077DB6091020B35
:100BA0007091030B8091040B9091050B0E94F0351E
:100BB000209158023091590240915A0250915B02A3
:100BC0000E94DF349B01AC010E94DF342BED3FE03B
:100BD00049E450E40E94F7362091540230915502C6
:100BE00040915602509157020E945A350E945A373E
:100BF00020914C0230914D0240914E0250914F0293
:100C00000E94F736209150023091510240915202D9
:100C1000509153020E94DF346D8F7E8F8F8F98A387
:100C200020E030E044EB52E40E94DF346B017C01B1
:100C300020E030E0A9010E94563587FF2EC71DA293
:100C40006DA184E022DB6091060B7091070B80910F
:100C5000080B9091090B0E94F035209168023091A9
:100C6000690240916A0250916B020E94DF349B013D
:100C7000AC010E94DF342BED3FE049E450E40E94D8
:100C8000F7362091640230916502409166025091DE
:100C900067020E945A350E945A3720915C023091B7
:100CA0005D0240915E0250915F020E94F7362091F2
:100CB00060023091610240916202509163020E9491
:100CC000DF346D8F7E8F8F8F98A320E030E044EB70
:100CD00052E40E94DF346B017C0120E030E0A90186
:100CE0000E94563587FF09C71DA26DA185E0CDDAA8
:100CF00060910A0B70910B0B80910C0B90910D0B76
:100D00000E94F035209178023091790240917A0268
:100D100050917B020E94DF349B01AC010E94DF34C2
:100D20002BED3FE049E450E40E94F7362091740235
:100D30003091750240917602509177020E945A35A7
:100D40000E945A3720916C0230916D0240916E02E0
:100D500050916F020E94F73620917002309171021B
:100D600040917202509173020E94DF346D8F7E8F2A
:100D70008F8F98A320E030E044EB52E40E94DF34F0
:100D80006B017C0120E030E0A9010E94563587FF0D
:100D9000E4C61DA26DA186E078DA60910E0B709119
:100DA0000F0B8091100B9091110B0E94F035209148
:100DB00088023091890240918A0250918B020E94F0
:100DC000DF349B01AC010E94DF342BED3FE049E4AE
:100DD00050E40E94F73620918402309185024091C0
:100DE0008602509187020E945A350E945A372091FC
:100DF0007C0230917D0240917E0250917F020E94E0
:100E0000F736209180023091810240918202509108
:100E100083020E94DF346D8F7E8F8F8F98A320E036
:100E200030E044EB52E40E94DF346B017C0120E0AF
:100E300030E0A9010E94563587FFBFC61DA26DA1F3
:100E400087E023DA6091120B7091130B8091140BE1
:100E50009091150B0E94F0352091980230919902E3
:100E600040919A0250919B020E94DF349B01AC0199
:100E70000E94DF342BED3FE049E450E40E94F73656
:100E800020919402309195024091960250919702E0
:100E90000E945A350E945A3720918C0230918D025F
:100EA00040918E0250918F020E94F736209190025D
:100EB0003091910240919202509193020E94DF344E
:100EC0006D8F7E8F8F8F98A320E030E044EB52E44B
:100ED0000E94DF346B017C0120E030E0A9010E9418
:100EE000563587FF9AC61DA26DA188E0CED96091C4
:100EF000160B7091170B8091180B9091190B0E9493
:100F0000F0352091A8023091A9024091AA02509197
:100F1000AB020E94DF349B01AC010E94DF342BED59
:100F20003FE049E450E40E94F7362091A40230915A
:100F3000A5024091A6025091A7020E945A350E9434
:100F40005A3720919C0230919D0240919E0250910F
:100F50009F020E94F7362091A0023091A102409199
:100F6000A2025091A3020E94DF346D8F7E8F8F8F7B
:100F700098A320E030E044EB52E40E94DF346B01A0
:100F80007C0120E030E0A9010E94563587FF75C63C
:100F90001DA26DA189E079D960911A0B70911B0B8C
:100FA00080911C0B90911D0B0E94F0352091B8028E
:100FB0003091B9024091BA025091BB020E94DF34D5
:100FC0009B01AC010E94DF342BED3FE049E450E48B
:100FD0000E94F7362091B4023091B5024091B602DA
:100FE0005091B7020E945A350E945A372091AC02A4
:100FF0003091AD024091AE025091AF020E94F7369F
:101000002091B0023091B1024091B2025091B302EE
:101010000E94DF346D8F7E8F8F8F98A320E030E0A9
:1010200044EB52E40E94DF346B017C0120E030E0AD
:10103000A9010E94563587FF50C61DA26DA18AE006
:1010400024D960911E0B70911F0B8091200B909101
:10105000210B0E94F0352091C8023091C9024091C5
:10106000CA025091CB020E94DF349B01AC010E9466
:10107000DF342BED3FE049E450E40E94F736209145
:10108000C4023091C5024091C6025091C7020E942D
:101090005A350E945A372091BC023091BD024091CE
:1010A000BE025091BF020E94F7362091C0023091DB
:1010B000C1024091C2025091C3020E94DF346D8F81
:1010C0007E8F8F8F98A320E030E044EB52E40E94A3
:1010D000DF346B017C0120E030E0A9010E9456352D
:1010E00087FF2BC61DA26DA18BE0CFD8C090080250
:1010F000D0900902E0900A02F0900B02A70196013D
:101100006091940A7091950A8091960A9091970A3D
:101110000E945635882341F0C092940AD092950AD5
:10112000E092960AF092970A88E68DA3C12CEE24ED
:10113000E39401E010E020E030E0AE014B5D5F4F52
:1011400068E670E080918A0A90918B0A5ED98DA33F
:10115000811123C6CC24C394E12C04E010E020E0EC
:1011600030E0AE014B5E5F4F68E670E080918A0A26
:1011700090918B0AE0D89D898E892F89388D998F1F
:101180008A8F2B8F3C8F8DA33093620A2093630A42
:101190008093640A9093650AC0900402D09005027F
:1011A000E0900602F0900702A701960160916C0A98
:1011B00070916D0A80916E0A90916F0A0E94563567
:1011C000882341F0C0926C0AD0926D0AE0926E0AB8
:1011D000F0926F0A8091700A811104C092D981E067
:1011E0008093700A1092810A8BE38DA38EA3C12C89
:1011F000EE24E39401E010E020E030E0AE014A5D2F
:101200005F4F68E670E08091760A9091770AFDD88A
:101210008DA3882309F4CAC51F86188A198A1A8AD9
:101220001B8A1C8A8091820A882309F4DBC581E02D
:101230008093830A6F857889762767277627072E1C
:10124000000C880B990B0E94F0354B015C016989F9
:101250007A89762767277627072E000C880B990B4B
:101260000E94F0356B017C016B897C8976276727AA
:101270007627072E000C880B990B0E94F0352B0166
:101280003C018091830A882309F4B4C51092560A60
:101290001092570A1092580A1092590A10925A0A3C
:1012A00010925B0A10925C0A10925D0A10925E0A1C
:1012B00010925F0A1092600A1092610A83E48DA373
:1012C0008EA3C12CEE24E39401E010E020E030E096
:1012D000AE014A5D5F4F68E670E08091760A9091BA
:1012E000770A93D88DA381111AC0CC24C394E12C22
:1012F00006E010E020E030E0AE01475F5F4F68E6B7
:1013000070E08091760A9091770A15D886E0FE0108
:101310003996DE011F9601900D928A95E1F7809132
:10132000820A882309F4A9C581E08093830A81E4B5
:101330008DA38EA3C12CEE24E39401E010E020E005
:1013400030E0AE014A5D5F4F68E670E08091760A5A
:101350009091770A5AD88DA3811116C0CC24C394DA
:10136000E12C02E010E020E030E0AE014F5D5F4F85
:1013700068E670E08091760A9091770A0E949B015E
:1013800089A19AA19CA38BA38091820A882309F446
:101390007CC581E08093830A86E59AE028E0FC0121
:1013A000DE01119601900D922A95E1F72981388589
:1013B000398328872A813F813A832F832B813E817D
:1013C0003B832E832C812DA33D813C832D8349813A
:1013D0005A816B817C814D8F5E8F6F8F78A3FC016A
:1013E0004193519361937193CF01FAE082369F0745
:1013F000A9F688E1E6E5FAE0AEE3BAE001900D92E5
:101400008A95E1F788E68093250AE6E2FAE0808D86
:1014100081932AE0EE33F207D1F7C12CE12C09E1E8
:1014200010E020E030E045E25AE068E670E08091AC
:101430009E0A90919F0A0E9405026091F20A7091A3
:10144000F30A8091F40A9091F50A6F5F7F4F8F4FF6
:101450009F4F6093F20A7093F30A8093F40A90937B
:10146000F50A0E94F0352091140230911502409146
:101470001602509117020E945635811108C0109231
:10148000F20A1092F30A1092F40A1092F50A60918F
:10149000F60A7091F70A8091F80A9091F90A6F5F45
:1014A0007F4F8F4F9F4F6093F60A7093F70A809398
:1014B000F80A9093F90A0E94F035209124023091A5
:1014C000250240912602509127020E945635811133
:1014D00008C01092F60A1092F70A1092F80A1092B9
:1014E000F90A6091FA0A7091FB0A8091FC0A9091C6
:1014F000FD0A6F5F7F4F8F4F9F4F6093FA0A709383
:10150000FB0A8093FC0A9093FD0A0E94F03520911B
:1015100034023091350240913602509137020E94D8
:101520005635811108C01092FA0A1092FB0A1092E7
:10153000FC0A1092FD0A6091FE0A7091FF0A8091E8
:10154000000B9091010B6F5F7F4F8F4F9F4F609308
:10155000FE0A7093FF0A8093000B9093010B0E9488
:10156000F03520914402309145024091460250915D
:1015700047020E945635811108C01092FE0A10924F
:10158000FF0A1092000B1092010B6091020B7091F8
:10159000030B8091040B9091050B6F5F7F4F8F4F72
:1015A0009F4F6093020B7093030B8093040B9093F7
:1015B000050B0E94F0352091540230915502409164
:1015C0005602509157020E945635811108C0109260
:1015D000020B1092030B1092040B1092050B6091FA
:1015E000060B7091070B8091080B9091090B6F5FB0
:1015F0007F4F8F4F9F4F6093060B7093070B809325
:10160000080B9093090B0E94F035209164023091F1
:10161000650240916602509167020E945635811121
:1016200008C01092060B1092070B1092080B109234
:10163000090B60910A0B70910B0B80910C0B909130
:101640000D0B6F5F7F4F8F4F9F4F60930A0B70930F
:101650000B0B80930C0B90930D0B0E94F035209197
:1016600074023091750240917602509177020E9487
:101670005635811108C010920A0B10920B0B109274
:101680000C0B10920D0B60910E0B70910F0B809153
:10169000100B9091110B6F5F7F4F8F4F9F4F609397
:1016A0000E0B70930F0B8093100B9093110B0E94F5
:1016B000F03520918402309185024091860250914C
:1016C00087020E945635811108C010920E0B1092AD
:1016D0000F0B1092100B1092110B6091120B709166
:1016E000130B8091140B9091150B6F5F7F4F8F4FF1
:1016F0009F4F6093120B7093130B8093140B909376
:10170000150B0E94F0352091940230919502409182
:101710009602509197020E945635811108C010928E
:10172000120B1092130B1092140B1092150B609168
:10173000160B7091170B8091180B9091190B6F5F1E
:101740007F4F8F4F9F4F6093160B7093170B8093B3
:10175000180B9093190B0E94F0352091A402309140
:10176000A5024091A6025091A7020E945635811110
:1017700008C01092160B1092170B1092180B1092B3
:10178000190B60911A0B70911B0B80911C0B90919F
:101790001D0B6F5F7F4F8F4F9F4F60931A0B70939E
:1017A0001B0B80931C0B90931D0B0E94F035209116
:1017B000B4023091B5024091B6025091B7020E9436
:1017C0005635811108C010921A0B10921B0B109203
:1017D0001C0B10921D0B60911E0B70911F0B8091C2
:1017E000200B9091210B6F5F7F4F8F4F9F4F609326
:1017F0001E0B70931F0B8093200B9093210B0E9464
:10180000F0352091C4023091C5024091C60250913A
:10181000C7020E945635811108C010921E0B10920B
:101820001F0B1092200B1092210BC0900A04D09035
:101830000B04E0900C04F0900D048FEFC81AD80A46
:10184000E80AF80AC0920A04D0920B04E0920C0451
:10185000F0920D04C114D104E104F10499F48091D3
:101860000E0490910F04A0911004B0911104019600
:10187000A11DB11D80930E0490930F04A09310043A
:10188000B09311048090120490901304A09014045B
:10189000B090150460910E0470910F0480911004B3
:1018A000909111040E94EE35A50194010E94F73633
:1018B00020E030E040E85FE40E94F7362B013C0175
:1018C000C701B6010E94EE35A50194010E94F736CA
:1018D0009B01AC01C301B2010E94DF346093060496
:1018E000709307048093080490930904A6960FB69A
:1018F000F894DEBF0FBECDBFDF91CF911F910F9146
:10190000FF90EF90DF90CF90BF90AF909F908F901F
:101910007F906F905F904F90089520E030E044E317
:1019200053E4C701B6010E94F33618161CF484EB89
:101930008DA332C8C701B6010E9413046B017C015C
:10194000CD8EDE8EEF8EF8A220E030E040E853E44A
:101950000E94563587FF0FC020E030E0A901C70183
:10196000B6010E94F33687FD16C8C701B6010E9472
:10197000C2356DA311C88FEFDBCF20E030E044E328
:1019800053E4C701B6010E94F33618161CF484EB29
:101990008DA357C8C701B6010E9413046B017C01D7
:1019A000CD8EDE8EEF8EF8A220E030E040E853E4EA
:1019B0000E94563587FF0FC020E030E0A901C70123
:1019C000B6010E94F33687FD3BC8C701B6010E94ED
:1019D000C2356DA336C88FEFDBCF20E030E044E3A3
:1019E00053E4C701B6010E94F33618161CF484EBC9
:1019F0008DA37CC8C701B6010E9413046B017C0152
:101A0000CD8EDE8EEF8EF8A220E030E040E853E489
:101A10000E94563587FF0FC020E030E0A901C701C2
:101A2000B6010E94F33687FD60C8C701B6010E9467
:101A3000C2356DA35BC88FEFDBCF20E030E044E31D
:101A400053E4C701B6010E94F33618161CF484EB68
:101A50008DA3A1C8C701B6010E9413046B017C01CC
:101A6000CD8EDE8EEF8EF8A220E030E040E853E429
:101A70000E94563587FF0FC020E030E0A901C70162
:101A8000B6010E94F33687FD85C8C701B6010E94E2
:101A9000C2356DA380C88FEFDBCF20E030E044E398
:101AA00053E4C701B6010E94F33618161CF484EB08
:101AB0008DA3C6C8C701B6010E9413046B017C0147
:101AC000CD8EDE8EEF8EF8A220E030E040E853E4C9
:101AD0000E94563587FF0FC020E030E0A901C70102
:101AE000B6010E94F33687FDAAC8C701B6010E945D
:101AF000C2356DA3A5C88FEFDBCF20E030E044E313
:101B000053E4C701B6010E94F33618161CF484EBA7
:101B10008DA3EBC8C701B6010E9413046B017C01C1
:101B2000CD8EDE8EEF8EF8A220E030E040E853E468
:101B30000E94563587FF0FC020E030E0A901C701A1
:101B4000B6010E94F33687FDCFC8C701B6010E94D7
:101B5000C2356DA3CAC88FEFDBCF20E030E044E38D
:101B600053E4C701B6010E94F33618161CF484EB47
:101B70008DA310C9C701B6010E9413046B017C013B
:101B8000CD8EDE8EEF8EF8A220E030E040E853E408
:101B90000E94563587FF0FC020E030E0A901C70141
:101BA000B6010E94F33687FDF4C8C701B6010E9452
:101BB000C2356DA3EFC88FEFDBCF20E030E044E308
:101BC00053E4C701B6010E94F33618161CF484EBE7
:101BD0008DA335C9C701B6010E9413046B017C01B6
:101BE000CD8EDE8EEF8EF8A220E030E040E853E4A8
:101BF0000E94563587FF0FC020E030E0A901C701E1
:101C0000B6010E94F33687FD19C9C701B6010E94CB
:101C1000C2356DA314C98FEFDBCF20E030E044E381
:101C200053E4C701B6010E94F33618161CF484EB86
:101C30008DA35AC9C701B6010E9413046B017C0130
:101C4000CD8EDE8EEF8EF8A220E030E040E853E447
:101C50000E94563587FF0FC020E030E0A901C70180
:101C6000B6010E94F33687FD3EC9C701B6010E9446
:101C7000C2356DA339C98FEFDBCF20E030E044E3FC
:101C800053E4C701B6010E94F33618161CF484EB26
:101C90008DA37FC9C701B6010E9413046B017C01AB
:101CA000CD8EDE8EEF8EF8A220E030E040E853E4E7
:101CB0000E94563587FF0FC020E030E0A901C70120
:101CC000B6010E94F33687FD63C9C701B6010E94C1
:101CD000C2356DA35EC98FEFDBCF20E030E044E377
:101CE00053E4C701B6010E94F33618161CF484EBC6
:101CF0008DA3A4C9C701B6010E9413046B017C0126
:101D0000CD8EDE8EEF8EF8A220E030E040E853E486
:101D10000E94563587FF0FC020E030E0A901C701BF
:101D2000B6010E94F33687FD88C9C701B6010E943B
:101D3000C2356DA383C98FEFDBCF20E030E044E3F1
:101D400053E4C701B6010E94F33618161CF484EB65
:101D50008DA3C9C9C701B6010E9413046B017C01A0
:101D6000CD8EDE8EEF8EF8A220E030E040E853E426
:101D70000E94563587FF0FC020E030E0A901C7015F
:101D8000B6010E94F33687FDADC9C701B6010E94B6
:101D9000C2356DA3A8C98FEFDBCF1092620A1092F3
:101DA000630A1092640A1092650AF6C9CC24C3949F
:101DB000E12C06E010E020E030E0AE01475F5F4F2D
:101DC00068E670E08091760A9091770A0E949B0104
:101DD00086E0FE013996DE011F9601900D928A95EC
:101DE000E1F720CA8091810A811124CA8DA18093D4
:101DF000810A20CA2AE038EE4CE151E4C501B40161
:101E00000E94F73620E030E040E858E30E94F736C1
:101E10006093560A7093570A8093580A9093590A10
:101E20002AE038EE4CE151E4C701B6010E94F736D2
:101E300020E030E040E858E30E94F73660935A0A09
:101E400070935B0A80935C0A90935D0A2AE038EEF7
:101E50004CE151E4C301B2010E94F73620E030E0CA
:101E600040E858E30E94F73660935E0A70935F0A79
:101E70008093600A9093610A21CA8091810A81113E
:101E800056CA8DA18093810A52CA8091810A81111C
:101E900083CA8DA18093810A7FCA4F925F926F920D
:101EA0007F928F929F92AF92BF92CF92EF92FF92CA
:101EB0000F931F93CF93DF9300D000D0CDB7DEB741
:101EC000E0EFF3E08BE2DF011D928A95E9F780E015
:101ED00090E0A0E8BFEB8093160490931704A093C2
:101EE0001804B09319048DEC9CECACECBDE380932A
:101EF000120490931304A0931404B09315048FEB71
:101F000095ECA4E7BDED8093F4039093F503A093C3
:101F1000F603B093F7038AE298EAA8E4B5E7809362
:101F2000F8039093F903A093FA03B093FB0382ECB8
:101F300099EFA6EDB5E58093FC039093FD03A09384
:101F4000FE03B093FF0381E694E3A7E7BBED809324
:101F5000000490930104A0930204B093030484EE60
:101F600093E09093F3038093F20382EC93E09093D9
:101F7000E5038093E40385EF92E09093C30380939D
:101F8000C2039093C5038093C4039093C7038093C7
:101F9000C6039093C9038093C8039093CB038093A7
:101FA000CA039093CD038093CC039093CF03809387
:101FB000CE039093D1038093D0039093D303809367
:101FC000D2039093D5038093D4039093D703809347
:101FD000D6039093D9038093D8039093DB03809327
:101FE000DA039093DD038093DC039093DF03809307
:101FF000DE039093E1038093E0039093E3038093E7
:10200000E20384E094E09093E9038093E80384EF93
:1020100093E09093E7038093E60386E094E0909347
:10202000EB038093EA03E5E2FAE081E4DF011D922D
:102030008A95E9F7E6E6FAE08BECDF011D928A95D6
:10204000E9F7FF24F394F092300B812C912C54018A
:1020500083948092EB0A9092EC0AA092ED0AB092DF
:10206000EE0A63E080E00E943C01F092EF0A1092D9
:10207000E40AF0922F0B8092E50A9092E60AA09271
:10208000E70AB092E80A62E081E00E943C01F09227
:10209000E90A1092DE0AF0922E0B8092DF0A9092EB
:1020A000E00AA092E10AB092E20A6BE082E00E94AC
:1020B0003C01F092E30A1092D80AF0922D0B809224
:1020C000D90A9092DA0AA092DB0AB092DC0A6DE09B
:1020D00083E00E943C01F092DD0A1092D20AF09255
:1020E0002C0B8092D30A9092D40AA092D50AB09277
:1020F000D60A64E084E00E943C01F092D70A109274
:10210000CC0AF0922B0B8092CD0A9092CE0AA0922C
:10211000CF0AB092D00A66E085E00E943C01F092BE
:10212000D10A1092C60AF0922A0B8092C70A9092A6
:10213000C80AA092C90AB092CA0A65E086E00E9465
:102140003C01F092CB0A1092C00AF092290B8092C7
:10215000C10A9092C20AA092C30AB092C40A67E070
:1021600087E00E943C01F092C50A1092BA0AF092F0
:10217000280B8092BB0A9092BC0AA092BD0AB09232
:10218000BE0A69E088E00E943C01F092BF0A10920A
:10219000B40AF092270B8092B50A9092B60AA092E8
:1021A000B70AB092B80A68E089E00E943C01F09258
:1021B000B90A1092AE0AF092260B8092AF0A909262
:1021C000B00AA092B10AB092B20A6AE08AE00E9414
:1021D0003C01F092B30A1092A80AF092250B80926B
:1021E000A90A9092AA0AA092AB0AB092AC0A6CE03B
:1021F0008BE00E943C01F092AD0A80E090E5A3ECF8
:10220000B8E48093900A9093910AA093920AB093B5
:10221000930A1092840AF092240B80910802909104
:102220000902A0910A02B0910B028093940A909344
:10223000950AA093960AB093970A8092850A909285
:10224000860AA092870AB092880A50E040E060E0D7
:1022500070E0CB010E94620190938B0A80938A0AFE
:1022600020EA422E26E8522E66246394712C409276
:102270008C0A50928D0A60928E0A70928F0A40EA00
:1022800056E861E070E00E948601F092890A10929F
:10229000810A1092830A1092700A80E090E5A3EC04
:1022A000B8E480937C0A90937D0AA0937E0AB09351
:1022B0007F0A1092720A1092730A1092740A109296
:1022C000750A1092770A1092760A1092710A10928B
:1022D000660AF092220B8091040290910502A0916F
:1022E0000602B091070280936C0A90936D0AA09346
:1022F0006E0AB0936F0A8092670A9092680AA09261
:10230000690AB0926A0AF092820A50E040E060E006
:1023100070E0CB010E9462019093770A8093760A65
:102320004092780A5092790A60927A0A70927B0AF7
:1023300040EA56E861E070E00E94860180E88A8306
:102340008BE6898389819A819C838B83C12CE12CC4
:1023500002E010E020E030E0AE014D5F5F4F68E644
:1023600070E08091760A9091770A0E9405028E8330
:10237000882339F09091820A992309F442C2F0929D
:10238000830A61E070E080E090E00E945F021A82C0
:1023900089819A819C838B83C12CE12C02E010E01F
:1023A00020E030E0AE014D5F5F4F68E670E0809165
:1023B000760A9091770A0E9405028E83882341F065
:1023C0009091820A992309F423C281E08093830AC1
:1023D00064E670E080E090E00E945F0285E78D8314
:1023E0008E83C12CEE24E39401E010E020E030E085
:1023F000AE014A5F5F4F68E670E08091760A909187
:10240000770A0E9405028E83811109C2CC24C394ED
:10241000E12C01E010E020E030E0AE014B5F5F4FC7
:1024200068E670E08091760A9091770A0E949B019D
:102430008D819091820A992309F4F3C191E09093E0
:10244000830A91E0883609F090E09093800A8836FC
:1024500009F022C189E1898389819A819C838B83D8
:10246000C12CE12C02E010E020E030E0AE014D5F35
:102470005F4F68E670E08091760A9091770A0E943B
:102480000502882341F09091820A992309F4D1C171
:1024900081E08093830A8CE18D838E83C12CEE24AE
:1024A000E39401E010E020E030E0AE014A5F5F4FCE
:1024B00068E670E08091760A9091770A0E940502A2
:1024C0008E838111BDC1CC24C394E12C01E010E0C6
:1024D00020E030E0AE014B5F5F4F68E670E0809136
:1024E000760A9091770A0E949B018D819091820AD1
:1024F000992309F4A7C191E09093830A877E8A8388
:102500008CE1898389819A819C838B83C12CE12C06
:1025100002E010E020E030E0AE014D5F5F4F68E682
:1025200070E08091760A9091770A0E9405028823D4
:1025300041F09091820A992309F48CC181E0809343
:10254000830A8BE18D838E83C12CEE24E39401E01A
:1025500010E020E030E0AE014A5F5F4F68E670E0D7
:102560008091760A9091770A0E9405028E838111EC
:1025700078C1CC24C394E12C01E010E020E030E0ED
:10258000AE014B5F5F4F68E670E08091760A9091F4
:10259000770A0E949B018D819091820A992309F408
:1025A00062C191E09093830A877E8A838BE189835D
:1025B00089819A819C838B83C12CE12C02E010E0FD
:1025C00020E030E0AE014D5F5F4F68E670E0809143
:1025D000760A9091770A0E940502882341F0909133
:1025E000820A992309F447C181E08093830A8AE132
:1025F0008D838E83C12CEE24E39401E010E020E073
:1026000030E0AE014A5F5F4F68E670E08091760A85
:102610009091770A0E9405028E83811133C1CC24E8
:10262000C394E12C01E010E020E030E0AE014B5F0C
:102630005F4F68E670E08091760A9091770A0E9479
:102640009B018D819091820A992309F41DC191E02B
:102650009093830A887F81608A838AE18983898154
:102660009A819C838B83C12CE12C02E010E020E056
:1026700030E0AE014D5F5F4F68E670E08091760A12
:102680009091770A0E9405028E83882341F09091F1
:10269000820A992309F400C181E08093830A109291
:1026A000820A11E010936B0A80E090E5A3ECB8E495
:1026B0008093A40A9093A50AA093A60AB093A70AB0
:1026C0001092980A1093230B81E090E0A0E0B0E014
:1026D0008093990A90939A0AA0939B0AB0939C0ABC
:1026E00050E040E060E070E0CB010E946201909316
:1026F0009F0A80939E0A40EA56E861E070E04093AA
:10270000A00A5093A10A6093A20A7093A30A0E94A0
:10271000860110939D0A1092F20A1092F30A109209
:10272000F40A1092F50A1092F60A1092F70A109223
:10273000F80A1092F90A1092FA0A1092FB0A109203
:10274000FC0A1092FD0A1092FE0A1092FF0A1092E3
:10275000000B1092010B1092020B1092030B1092BF
:10276000040B1092050B1092060B1092070B10929F
:10277000080B1092090B10920A0B10920B0B10927F
:102780000C0B10920D0B10920E0B10920F0B10925F
:10279000100B1092110B1092120B1092130B10923F
:1027A000140B1092150B1092160B1092170B10921F
:1027B000180B1092190B10921A0B10921B0B1092FF
:1027C0001C0B10921D0B10921E0B10921F0B1092DF
:1027D000200B1092210B26960FB6F894DEBF0FBE89
:1027E000CDBFDF91CF911F910F91FF90EF90CF90D0
:1027F000BF90AF909F908F907F906F905F904F9021
:1028000008959091810A9111BCCD8093810AB9CD30
:102810009091810A9111DCCD8093810AD9CD80E01D
:1028200008CE9091810A91110CCE9E819093810ADD
:1028300008CE9091810A91112ECE8093810A2BCEE1
:1028400080E054CE9091810A911158CE9E81909350
:10285000810A54CE9091810A911173CE8093810A9E
:1028600070CE80E099CE9091810A91119DCE9E818B
:102870009093810A99CE9091810A9111B8CE80935C
:10288000810AB5CE80E0DECE9091810A9111E2CE30
:102890009E819093810ADECE9091810A9111FFCEA4
:1028A0008093810AFCCE8091EA0A811103C081E005
:1028B0008093EA0A8091E40A811103C081E0809349
:1028C000E40A8091DE0A811103C081E08093DE0A70
:1028D0008091D80A811103C081E08093D80A809149
:1028E000D20A811103C081E08093D20A8091CC0A80
:1028F000811103C081E08093CC0A8091C60A8111C6
:1029000003C081E08093C60A8091C00A811103C090
:1029100081E08093C00A8091BA0A811103C081E0EE
:102920008093BA0A8091B40A811103C081E0809338
:10293000B40A8091AE0A811103C081E08093AE0A8F
:102940008091A80A811103C081E08093A80A809138
:10295000840A811119C081E08093840A8091850ADC
:102960009091860AA091870AB091880A0197A105E3
:10297000B10551F48091890A882331F080918A0A47
:1029800090918B0A0E9444028091660A811119C0BD
:1029900081E08093660A8091670A9091680AA0910D
:1029A000690AB0916A0A0197A105B10551F48091B5
:1029B0006B0A882331F08091760A9091770A0E9401
:1029C00044028091710A81111BC081E08093710AD9
:1029D0008091720A9091730AA091740AB091750A5D
:1029E0000197A105B10561F482E090E0A0E0B0E0BC
:1029F0008093720A9093730AA093740AB093750A35
:102A00008091980A811119C081E08093980A809181
:102A1000990A90919A0AA0919B0AB0919C0A0197F9
:102A2000A105B10551F480919D0A882331F0809170
:102A30009E0A90919F0A0C94440208954F925F92CF
:102A40006F927F928F929F92AF92BF92CF92DF92BE
:102A5000EF92FF920F931F93F894409027045090A9
:102A600028046090290470902A04C0901B04D09020
:102A70001C04E0901D04F0901E04452B09F0A6C034
:102A80009B01AC01241935094609570929013A016E
:102A900000912304109124042091250430912604F0
:102AA00048015901840C951CA61CB71C8016910680
:102AB000A206B306A0F400911F04109120042091F7
:102AC0002104309122040F5F1F4F2F4F3F4F00937F
:102AD0001F04109320042093210430932204809239
:102AE000230490922404A0922504B092260400911D
:102AF0001F0410912004209121043091220480921F
:102B00002B0490922C04A0922D04B0922E040093DA
:102B10002F041093300420933104309332046093D7
:102B20002704709328048093290490932A04A30116
:102B3000920160EA76E881E090E00E9441456C0DE8
:102B40007D1D8E1D9F1D60931B0470931C0480933C
:102B50001D0490931E040091CC021091CD0220918F
:102B6000CE023091CF020F3F1F4F2F4F3F4FF1F05A
:102B70000091CC021091CD022091CE023091CF0273
:102B80000E3F1F4F2F4F3F4F89F0C090CC02D09087
:102B9000CD02E090CE02F090CF0221E08C149D0493
:102BA000AE04BF0408F420E02093370478941F910A
:102BB0000F91FF90EF90DF90CF90BF90AF909F90DC
:102BC0008F907F906F905F904F9008954B015C01C4
:102BD00084189508A608B708A3019201261B370B95
:102BE000480B590B6415750586059705E0F08216AC
:102BF0009306A406B50640F420E030E0A901811454
:102C00009104A104B104A1F460EA76E881E090E0C7
:102C10000E944145A7019601261B370B480B590B13
:102C2000CA01B901C3CF82169306A406B50660F7A0
:102C3000A501940160EA76E881E090E00E944145B8
:102C40006C0D7D1D8E1D9F1DB1CFF8CECF93DF93F0
:102C500000D01F92CDB7DEB71C821B821A82198268
:102C600010923304109234041092350410923604FA
:102C7000BE016F5F7F4FCE0103960E941B336981B7
:102C80007A818B819C810E940F2C009761F4BE0198
:102C90006F5F7F4FCE0103960E94273369817A814F
:102CA0008B819C812ED50F900F900F900F90DF910C
:102CB000CF910895FF920F931F93CF93DF93082F27
:102CC00060E070E0CB010E941340FF24F3940E9467
:102CD000F82AEC01892B89F010E0CE3F8FEFD8075E
:102CE00069F0002361F160E070E0CB010E941340C5
:102CF00081E090E0892B59F322C011E025D5EC0149
:102D0000892B21F0CE3F8FEFD80759F711111EC044
:102D100011E0229609F410E00E94A82AEC01892B08
:102D200021F0CE3F8FEFD807E1F6111111C011E06D
:102D3000CE3F8FEFD80709F410E001110BC0CE0190
:102D4000DF91CF911F910F91FF90089511E0E4CF93
:102D500011E0F3CF60E070E0CB010E9413401F252B
:102D6000812F90E0C7CFCF93DF93809137048823E2
:102D700021F060E070E0CB014CD635D6D0E0C0E069
:102D8000892B71F06AE070E080E090E00E941340CF
:102D900081E090DF28D62196C03D27E0D20781F759
:102DA00027D60E94632C10924F0410924E0410926A
:102DB00048041092490410924A0410924B04109255
:102DC0004404109245041092460410924704109255
:102DD0004004109241041092420410924304109255
:102DE0003C0410923D0410923E0410923F04109255
:102DF00038041092390410923A0410923B044EEFBA
:102E00005FEF6FEF7FEF4093CC025093CD02609362
:102E1000CE027093CF0210923704EBE2F4E028E088
:102E2000DF011D922A95E9F71092270410922804D9
:102E30001092290410922A04109223041092240460
:102E4000109225041092260410921F041092200460
:102E5000109221041092220410921B0410921C0460
:102E600010921D0410921E04DF91CF9108951092CC
:102E70005B0410925C0410925D0410925E04109248
:102E80005A04809163049091640490935904809350
:102E90005804109257041092560410925204109243
:102EA000530410925404109255041092600410922E
:102EB0005F0490E080E00895CF92DF92EF92FF925E
:102EC0000F931F93CF938C01892B09F055C020914C
:102ED00063043091640480915804909159044091A6
:102EE0006304509164045093590440935804281784
:102EF000390781F010925704109256041092520430
:102F000010925304109254041092550410926004CD
:102F100010925F048091630490916404019761F5BD
:102F200080915F0490916004892B21F48091D002FC
:102F3000811112C080915F04909160040197E1F4C7
:102F40008091520490915304A0915404B09155047F
:102F50000197A105B10581F4109252041092530417
:102F600010925404109255041092D00282E090E026
:102F70009093600480935F04809163049091640453
:102F8000019709F01CC18091790490917A0480170F
:102F9000910709F014C18091750490917604A09175
:102FA0007704B0917804009709F409C12091740462
:102FB00021110DC040917504509176046091770401
:102FC00070917804452B462B472B09F4F8C02091CB
:102FD0005F04309160042230310509F0F0C0209187
:102FE00056042111ECC0FC01C080D180E280F38046
:102FF00080915A04882309F4D3C08091660490918B
:103000006704892B09F4FDC02091660430916704A0
:1030100081E02230310509F080E020916604309192
:103020006704C1E02130310549F0209166043091F8
:103030006704C1E02230310509F0C0E0882309F4BB
:1030400056C02091700430917104409172045091E7
:103050007304C701B6010E94F33687FD14C02091A6
:103060007004309171044091720450917304609126
:103070005B0470915C0480915D0490915E040E94F9
:10308000563587FD22C02091700430917104409123
:10309000720450917304C701B6010E94F3361816EA
:1030A00034F5209170043091710440917204509174
:1030B000730460915B0470915C0480915D04909155
:1030C0005E040E945635811112C08091680490916F
:1030D0006904A0916A04B0916B04892B8A2B8B2B15
:1030E00019F481E08093570481E080935604CC2347
:1030F00009F456C02091700430917104409172041B
:1031000050917304C701B6010E94563587FF14C061
:1031100020917004309171044091720450917304B5
:1031200060915B0470915C0480915D0490915E04F9
:103130000E94F33687FF22C0209170043091710401
:103140004091720450917304C701B6010E94563534
:10315000811126C020917004309171044091720455
:103160005091730460915B0470915C0480915D04E4
:1031700090915E040E94F336181694F480916804CE
:1031800090916904A0916A04B0916B04892B8A2BF9
:103190008B2B19F481E08093570481E080935604CF
:1031A00081E090915604911180E080935A04C0927E
:1031B0005B04D0925C04E0925D04F0925E04012B0B
:1031C00009F067C180915F0490916004892BD9F464
:1031D00010926504109256048091D002882379F0F1
:1031E00082E090E09093600480935F041092D0029C
:1031F000209163043091640481E0232BE9F080E0A6
:103200001BC081E00ACF1092D00280916504882310
:1032100049F0109257041092600410925F041092CB
:103220006504EDCF8091630490916404892BE1F0F3
:10323000809156041092560420915F0430916004EE
:103240002230310509F45EC088F42115310509F4F6
:1032500048C02130310509F4F3C010925704109290
:1032600056041092650438C081E0E6CF2330310562
:1032700009F4B1C02430310581F7409152045091D6
:103280005304609154047091550441155105610532
:10329000710561F04150510961097109409352046F
:1032A0005093530460935404709355044091520416
:1032B000509153046091540470915504452B462B52
:1032C000472BD9F4209161043091620421303105FB
:1032D00009F046C0109257041092600410925F04E7
:1032E0000CC08091D002882341F082E090E090935E
:1032F000600480935F041092D00210925004809179
:103300005704CEC08823C9F3809168049091690462
:10331000A0916A04B0916B04181619061A061B06D0
:103320000CF07DC08091630490916404019709F0D2
:1033300076C08091680490916904A0916A04B0916C
:103340006B048093520490935304A0935404B0935D
:10335000550483E090E09093600480935F04CDCFA8
:1033600040916C0450916D0460916E0470916F04F3
:10337000452B462B472BA9F01092570480916C04E3
:1033800090916D04A0916E04B0916F0480935204EB
:1033900090935304A0935404B093550481E090E0BB
:1033A000DACF882399F08091D1029091D202A09136
:1033B000D302B091D4028093520490935304A0930B
:1033C0005404B093550484E090E0C5CF10925704A4
:1033D00082E090E0C0CF8091520490915304A0917C
:1033E0005404B09155040097A105B10559F0019717
:1033F000A109B1098093520490935304A0935404FB
:10340000B09355048091520490915304A0915404B8
:10341000B0915504892B8A2B8B2B09F06ECF8091AC
:10342000D1029091D202A091D302B091D402892B03
:103430008A2B8B2B09F44ECF81E080935704B3CFB6
:10344000409152045091530460915404709155047A
:10345000411551056105710561F04150510961093E
:103460007109409352045093530460935404709331
:10347000550440915204509153046091540470914A
:103480005504452B462B472B09F037CF8111C7CF69
:103490009FCF80915004882309F431CF809151044B
:1034A000CF911F910F91FF90EF90DF90CF900895F3
:1034B00010925B0410925C0410925D0410925E0402
:1034C00010925A041092600410925F0410925904F2
:1034D0001092580410927A041092790410925704B2
:1034E00010925604109252041092530410925404F5
:1034F00010925504109251041092500410927504C9
:10350000109276041092770410927804109274044A
:10351000109270041092710410927204109273044D
:1035200088EE93E0A0E0B0E08093D1029093D202C5
:10353000A093D302B093D40210926C0410926D0445
:1035400010926E0410926F04109268041092690435
:1035500010926A0410926B04109267041092660431
:1035600081E08093D002109265041092640410925E
:103570006304109262041092610490E080E0089568
:103580008091630490916404892B19F58091D00295
:10359000882351F080916504811106C081E08093F9
:1035A0005104809350040895209165043091D00215
:1035B00081E090E0332311F090E080E030E082235E
:1035C0009323892B21F01092510481E0EACF1092CD
:1035D0005004089582E090E0FA01918380838FEF98
:1035E0009FEF0895CF93DF93EA01009711F00E94B7
:1035F000802D1982188290E080E0DF91CF910895AC
:10360000DB01009719F48FEF8C9308952EEF2C9324
:10361000FC013F96EF30F10508F034C08827EC5EDE
:10362000F44E8F4F0C94AE45401B3E1B3C1B3A1B87
:10363000381B341B361B321B301B2E1B2B1B271B2E
:10364000231B291B421B80E311968C93089589E26A
:10365000FBCF82E2F9CF11961C92089583E2F4CF5A
:1036600081E2F2CF81E1F0CF87E2EECF8AE2ECCFC8
:1036700080E1EACF84E2E8CF88E2E6CF86E2E4CFD9
:1036800081E3E2CF80E2E0CF8091870490918804CB
:103690000895909388048093870408958091860408
:1036A000089590918604892B809386040895982F1D
:1036B0009095809186048923809386040895809153
:1036C0008504089580918304909184040895611580
:1036D000710559F0FB0130E020E070E060E0241754
:1036E000350719F06115710511F0CB010895A0811E
:1036F000B181A817B90709F4BF012F5F3F4F369674
:10370000EECF8091890481111CC060D266D2909363
:103710007C0480937B040E9481250E9493259093D2
:10372000800480937F040E94102A0E94172A90939D
:103730007E0480937D0481E08093890490E080E0A2
:10374000089584EF9FEF08958F929F92AF92BF925A
:10375000CF92DF92EF92FF920F931F93CF93DF935D
:1037600000D000D000D01F92CDB7DEB71A861986E0
:1037700018861F821E821D821C821B821A82198259
:103780008091890407EF1FEF882309F49CC08E0104
:103790000D5F1F4F9E012B5F3F4FAE01495F5F4F93
:1037A000BE01675F7F4F90E080E00E94942B8C0108
:1037B000009721F00596029708F0DBC029853A852D
:1037C0002115310509F402C1ED80FE804B815C8139
:1037D000B701640F751F8F8198858617970708F4C6
:1037E000F5C0E20EF31ED7019C91903C09F07FC01A
:1037F0004230510508F47BC011968C9140918704AA
:1038000050918804452B09F49CC0913F08F071C089
:103810002CE1290F2D3008F48BC02DE2290F203127
:1038200008F489C0903C21F48150823008F483C0B0
:1038300088E3890F8B3008F481C090E0C92E9BE1AA
:10384000D92EEAEEFAE16D817E81AE014F5F5F4FC6
:1038500089859A8519955C01C114D104A1F18980EB
:103860009A808114910479F18B819C818815990546
:1038700008F487C010E000E04B815C8170E060E0FC
:10388000C7010E94D84501151105E9F449815A8103
:1038900069857A858D819E81680F791FC501F60142
:1038A0001995E980FA800D811E812F81388549851F
:1038B0005A856FEF7FEF81E090E00E942F2B8C0103
:1038C000892B09F056C0C8012A960FB6F894DEBFBE
:1038D0000FBECDBFDF91CF911F910F91FF90EF9061
:1038E000DF90CF90BF90AF909F908F90089580E031
:1038F00085CF30E020E0220F331FF901E558FB4F60
:103900000190F081E02D309709F497CF892F90E056
:103910001995009709F491CFDC011296ED91FC9175
:1039200013971496CD90DC90309709F08CCF1FC080
:1039300021E030E0E0CF22E030E0DDCF23E030E0F6
:10394000DACFD12CC12CE2EFFAE19F3F09F07BCF17
:10395000E0917B04F0917C04309721F4C90104EFDD
:103960001FEF0CC08FEF90E019950097A9F604EFB8
:103970001FEF89859A85009709F4A5CF0E94802DB5
:10398000A2CF0E945E2C8C0189859A850E94802D91
:1039900070E060E0C4010E94F72B98878F830E943B
:1039A0002C2B9E838D836F8178856115710559F06D
:1039B000C8010E940C2F9A87898706EF1FEF892B79
:1039C00009F058CF59CF08EF1FEF56CF08EF1FEF80
:1039D000D0CF20918904222319F020E00C9498255F
:1039E00087EF9FEF08958091870490918804089550
:1039F0000E941C2A0E947629F5D0EBE7F4E088E0CB
:103A0000DF011D928A95E9F71092890490E080E029
:103A100008950C94D42721E040E050E0BA010C94C2
:103A2000982586E090E0FA019183808390E080E021
:103A3000089547E050E068EF72E049CEDF92EF92E0
:103A4000FF920F931F93CF93DF938A01EC01C60F70
:103A5000D71FE0908D04F0908E04D9800E94462CF0
:103A6000D816190678F082E090E0F80191838083FF
:103A70008EEF9FEFDF91CF911F910F91FF90EF900D
:103A8000DF900895EF2841F482E090E0F8019183FF
:103A9000808384EF9FEFEECF898180938C0490E048
:103AA0000196F8019183808390E080E0E3CFCF938B
:103AB000DF93EA010E948528882321F00E94532C7D
:103AC0000E94862882E090E0998388838BEF9FEFA5
:103AD000DF91CF910895CF93DF93EB0186E0FB0157
:103AE00011928A95E9F78FEF8883D8DD8983E7DD26
:103AF0008A83E8DD9D838C83DF91CF910895CF93F6
:103B0000DF93EA010E948828811109C082E090E0D9
:103B10009983888385EF9FEFDF91CF91089590E09F
:103B200080E0B7DD81E090E09983888390E080E0D9
:103B3000F3CF0F931F93CF93DF93EA018C01060F0E
:103B4000171F0E94882881110BC082E090E09983A2
:103B5000888385EF9FEFDF91CF911F910F9108959B
:103B6000F8018181823038F082E090E09983888387
:103B70008EEF9FEFF0CF81E090E08BDD88E090E06A
:103B80009983888390E080E0E6CFCF93DF9300971E
:103B9000D1F4EB01FB01329686E0DF011D928A959C
:103BA000E9F78FEF888385E089831A820E94462C8B
:103BB0008B830E94452C9D838C8381E08E838F8331
:103BC000DF91CF910895DF91CF911ACD89E19DE1E9
:103BD00090938B0480938A04089580918A04909135
:103BE0008B04089510928B0410928A04089580919A
:103BF0008D0490918E040895411105C061157105E1
:103C00008105910561F060938D0470938E0480931B
:103C10008F04909390044093910481E0089580E094
:103C20000895FF920F931F93CF93DF938A01EC01C6
:103C3000C60FD71FF9800E94462CF816190668F0A7
:103C400082E090E0F801918380838EEF9FEFDF9117
:103C5000CF911F910F91FF9008956C817D818E818E
:103C60009F814B81C9DF811108C082E090E0F8019B
:103C70009183808384EF9FEFEACF898180938C04C6
:103C800090E00196F8019183808390E080E0DFCF9F
:103C9000CF93DF93EA01FC01E60FF71F6481758182
:103CA000868197814381A8DF811109C082E090E07D
:103CB0009983888384EF9FEFDF91CF91089581E00E
:103CC00090E09983888390E080E0F6CFEDE8F4E01F
:103CD0004081518162817381480F511D611D711DA9
:103CE00040835183628373830895CF93C0918C0482
:103CF0004C2F50E060918D0470918E0401960E94CB
:103D0000CF458C2FE3DF10928C04CF91089500975C
:103D100099F480918D0490918E042FEFFB01208304
:103D2000892B59F020918C0430E02F5F3F4F2417EE
:103D3000350719F4CB01D9CF63CC0895009799F4D6
:103D400080918D0490918E042FEFFB012083892BAD
:103D500059F020918C0430E02F5F3F4F2417350736
:103D600019F4CB01C2CF4CCC089523E1AC01249FC0
:103D7000C001259F900D1124E0919604F0919704C5
:103D8000E80FF91F238134812250310981E022306C
:103D9000310508F080E008950F931F93CF93DF93D0
:103DA0000091980410919904D0E0C0E080E00C17D5
:103DB0001D0749F491E0811190E0892FDF91CF91A7
:103DC0001F910F9108958111F5CFCE01CEDF21967D
:103DD000EECFA0919604B0919704109729F120910D
:103DE00098043091990482179307F0F453E1589F97
:103DF0009001599F300D1124A20FB31FED91FC913A
:103E00001197309789F012968C91681768F48DE0BD
:103E1000689FE00DF11D112480819181892B21F093
:103E200081E09281491708F080E008959C0143E108
:103E3000429FC001439F900D1124E0919604F091A0
:103E40009704E80FF91F8385823091F481E090E0B8
:103E5000658176814091D5025091D602641775072D
:103E600011F490E080E0892B19F081E0232B09F018
:103E700080E00895FC01A081B1818DE0689FA00DD4
:103E8000B11D112413964D915C9185859685489FAF
:103E90009001499F300D589F300D1124C9010196A2
:103EA000611103C0478144FD04960895EF92FF928B
:103EB0000F931F93CF93DF93EA01FC01E60FF71FE7
:103EC00002811381E480F5804F2D6E2DC80181DFC2
:103ED00081110DC082E090E0998388838EEF9FEF7F
:103EE000DF91CF911F910F91FF90EF900895C8013E
:103EF0003CDF882339F082E090E09983888388EF63
:103F00009FEFEECF1093DC020093DB02E092DD0224
:103F1000F092DE0281E090E09983888390E080E077
:103F2000DFCFCF92DF92EF92FF920F931F93CF9349
:103F3000DF937A01EC01C60FD71FC090DB02D0904F
:103F4000DC020091DD021091DE02412F602FC601DC
:103F500040DF811110C082E090E0F70191838083FF
:103F60008AEF9FEFDF91CF911F910F91FF90EF901C
:103F7000DF90CF900895C601F8DE882341F082E0FB
:103F800090E0F7019183808388EF9FEFEBCF4C8126
:103F90005D816E817F819A8189818F3F41F082E0CE
:103FA00090E0F701918380838EEF9FEFDBCFE3E119
:103FB000EC9D9001ED9D300D1124E0919604F0915F
:103FC0009704E20FF31F0190F081E02D2DE0029F96
:103FD000E00DF11D11240190F081E02D27E0129FEA
:103FE000E00DF11D1124808391838B8182834383B3
:103FF0005483658376831F5F1093DE0281E090E037
:10400000F7019183808390E080E0ACCFEF92FF9244
:104010000F931F93CF93DF937A018C01060F171F25
:10402000C0919604D0919704209781F021E030E070
:10403000F8018281938140919804509199048417EA
:10404000950710F030E020E0232B71F482E090E03F
:10405000F701918380838EEF9FEFDF91CF911F91C6
:104060000F91FF90EF90089543E1489F9001499F81
:10407000300D1124C20FD31F78DE882341F082E077
:1040800090E0F7019183808388EF9FEFE6CFF801FE
:104090002481358120383105C8F687818111D6CF3A
:1040A0004181842F90E08F7E009741F082E090E084
:1040B000F7019183808386EF9FEFCFCF4F833E83BD
:1040C0002D83268128871986223010F421E0288745
:1040D00021E030E0F70131832083BFCF88E090E01A
:1040E000FA019183808390E080E00895FB018FEFD7
:1040F000808381E181838FEF9FEF9383828380E8C8
:1041000090E095838483168217820895FB018FEFD8
:10411000808391E0918382839383848384E3858386
:1041200081E090E0978386830895DF92EF92FF927B
:104130000F931F93CF93DF93EA01FC01E60FF71F64
:104140008181813071F082E090E0998388838FEFE4
:104150009FEFDF91CF911F910F91FF90EF90DF9034
:10416000089582819381D4802581E680F780009133
:104170009604109197040115110539F482E090E03E
:10418000998388838CEF9FEFE4CF409198045091FE
:1041900099048417950738F082E090E0998388832A
:1041A0008EEF9FEFD6CF892B39F082E090E0998394
:1041B000888386EF9FEFCDCF8D2D8D7FB1F7213096
:1041C000A1F781E0D11006C091E0E916F10431F0C9
:1041D00080E004C0E2E0EE16F104D0F3882329F376
:1041E00090E080E0C2DD882339F082E090E099839E
:1041F000888388EF9FEFADCFF801D38681E0848775
:10420000F686E586108A178681E090E09983888398
:1042100090E080E09ECF4CE050E062E273E057CA4D
:104220008F929F92BF92CF92DF92EF92FF920F9365
:104230001F93CF93DF93EA01FC01E60FF71F828102
:1042400093810481B580E0919604F09197043097B2
:1042500091F482E090E0998388838CEF9FEFDF9167
:10426000CF911F910F91FF90EF90DF90CF90BF9073
:104270009F908F900895209198043091990482170F
:10428000930738F082E090E0998388838EEF9FEF68
:10429000E6CF23E1289F6001299FD00C1124EC0D6B
:1042A000FD1DE080F180E114F10499F2828108178C
:1042B00048F78DE0089F80011124E00EF11EF70100
:1042C00080819181892B29F6BB20E1F2F7E0BF9E26
:1042D00040011124C4010E94472DF701918380837E
:1042E000E0919604F0919704EC0DFD1D0190F08192
:1042F000E02DE00FF11F80819181009739F482E079
:1043000090E0998388838DEF9FEFA9CFA40170E09F
:1043100060E00E94D8458091960490919704C80E61
:10432000D91EF60180819181080F191FF801B28210
:1043300081E090E09983888390E080E090CFAF9215
:10434000BF92CF92DF92FF920F931F93CF93DF9391
:10435000EA01FC01E60FF71F82819381F48000914E
:104360009604109197040115110581F482E090E004
:10437000998388838CEF9FEFDF91CF911F910F91ED
:10438000FF90DF90CF90BF90AF9008952091980458
:10439000309199048217930738F082E090E0998376
:1043A00088838EEF9FEFE8CF2FEF2F0D2C3FA8F7DC
:1043B00023E1289F6001299FD00C11240C0D1D1DA5
:1043C000F80180819181892B89F6FDE0FF9E5001E3
:1043D0001124C5010E94472DF80191838083E0914B
:1043E0009604F0919704EC0DFD1D8081918100975A
:1043F00039F482E090E0998388838DEF9FEFBCCF02
:10440000A50170E060E00E94D845E0919604F0912B
:104410009704EC0DFD1DF28281E090E09983888382
:1044200090E080E0A9CFCF92DF92EF92FF920F93BE
:104430001F93CF93DF93860F971FFC010281138197
:104440008091960490919704892B81F082E090E00E
:10445000FA01918380838CEF9FEFDF91CF911F91C1
:104460000F91FF90EF90DF90CF900895C801B0E0DA
:10447000A0E00197A109B1098F3F9F4FA105B105A8
:1044800040F082E090E0FA01918380838EEF9FEF0D
:10449000E4CF7A0183E1809F6001819FD00C1124D9
:1044A000C6010E94472DEC01009741F482E090E0A4
:1044B000F701918380838DEF9FEFCFCFA60170E04E
:1044C00060E00E94D845D0939704C093960410935F
:1044D00099040093980490E080E02FEF3FEF41E0D3
:1044E00061E070E08017910741F481E090E0F7010E
:1044F0009183808390E080E0B0CF3A8B298B1B863C
:104500004C877E876D87188A1F8601966396EACF4F
:10451000EF92FF921F93CF93DF93EC0110E0F12C09
:10452000E12C6A811617B0F083E0689FB001112476
:10453000AE014F5E5F4FC7010E94AC2D009721F086
:104540002FEF3FEF3A8B298BDF91CF911F91FF9097
:10455000EF900895612FCE018DDC61E070E00E9444
:10456000F72BE816F90608F47C011F5FDACFF89400
:10457000209194043091950481E02115310509F0D2
:1045800080E0232B09F0789408952F923F924F9268
:104590005F926F927F928F929F92AF92BF92CF92D3
:1045A000DF92EF92FF920F931F93CF93DF933C0123
:1045B000660E771EF301828193814C01B12CA12CF0
:1045C000C0919604D0919704209769F021E030E0E3
:1045D00060919804709199048617970710F030E065
:1045E00020E0232BD1F482E090E0FA0191838083D4
:1045F0008EEF9FEFDF91CF911F910F91FF90EF9082
:10460000DF90CF90BF90AF909F908F907F906F90F2
:104610005F904F903F902F9008958092DF0290928C
:10462000E002A092E102B092E20263E1689F900191
:10463000699F300D1124C20FD31FF3018181833094
:1046400040F082E090E0FA019183808386EF9FEF53
:10465000D1CF2A012B813C81232BF1F42881398190
:104660009F8191FF2EC0232B09F46FC020919B04E2
:104670009A81422F490F5527551FBA0141E050E05A
:104680006138710514F050E040E0452B09F45DC03D
:104690002A87920F90939B048150823008F481C046
:1046A00066DF882309F4D8C0F3018181813009F4E1
:1046B0008DC008F47BC0823009F4C6C090E080E071
:1046C000ADC0232B09F441C020919A049A81E22FB6
:1046D000E90FFF27FF1F41E050E0ED3FF10514F027
:1046E00050E040E0452B89F12A87920F90939A047D
:1046F000D3CFA081B181A20FB31F11966C91060F89
:10470000111D0196295F3F4F8417950794F38D85FE
:104710009E85089F1001099F300C189F300C1124B2
:10472000C114D104D1F48F8184FF17C00E94452C9D
:10473000F5E02F0E311C21E08215930508F420E0EE
:10474000A701435F5F4F21110EC082E090E0F201AC
:104750009183808387EF9FEF4DCF0E94452C2FEFF1
:10476000221A320AE8CF88819981E80EF91EF701F2
:1047700014830383FFEFCF1ADF0A7A018A818C1535
:104780001D0409F00CF48CCFE881F981EE0DFF1DBA
:10479000428150E030E020E010E000E090E080E076
:1047A000B3CFF12CE12CD12CC12CE8CF81E090E0EB
:1047B0009C838B83F1DA882309F480CF81E090E039
:1047C0000E94491B80E40E94571B78CF89899A89EF
:1047D000019661F083E090E09C838B8382E090E01F
:1047E0000E94491B80E40E94511B68CF8D819E81ED
:1047F0002091D5023091D60282179307D1F46091AF
:10480000D9027091DA02AE014F5E5F4F8091D702FC
:104810009091D8020E94CB2E0097E1F2789422E08A
:1048200030E0F20131832083892B99F08DEF9FEFE7
:10483000E1CE89288A288B2869F6892B59F6CE0182
:1048400067DE188A1F86E8CF82E090E09C838B8326
:1048500035CF90E080E0CECE82E090E0F20191830F
:10486000808385EF9FEFC6CE8F929F92AF92BF92CB
:10487000CF92DF92EF92FF920F931F93CF93DF932C
:10488000EA018C01060F171FF8018181833098F02F
:1048900082E090E09983888386EF9FEFDF91CF914C
:1048A0001F910F91FF90EF90DF90CF90BF90AF904E
:1048B0009F908F9008958091960490919704892BF2
:1048C00061F081E090E02091980430919904232BCD
:1048D00011F490E080E0892B39F482E090E0998334
:1048E00088838EEF9FEFDACF42DE882309F4DFC0A2
:1048F000F8018181813009F495C0E8F0823099F4A3
:104900002091980430919904E0919604F0919704D5
:1049100090E080E041E050E02817390709F0BDC081
:104920003BDA811117C0789481E090E09983888305
:1049300090E080E0B3CF2091980430919904E09109
:104940009604F091970490E080E041E050E0281751
:10495000390741F481E090E00E94491B80E40E9405
:10496000571BE1CF63817481672B11F0548343831C
:1049700001967396ECCFE0919604F0919704E00FC6
:10498000F11F2381348122303105D9F42189328904
:104990002F3F3F4FB1F4258136814091D502509190
:1049A000D6022417350761F5AF014F5E5F4F609166
:1049B000D9027091DA028091D7029091D8020E94B8
:1049C000CB2EEFEFCE1ADE0AEE0AFE0A0D5E1F4F67
:1049D000409198045091990470E060E0C416D506A7
:1049E000E606F7063CF5009731F27894892B09F436
:1049F0009BCF82E090E0998388838DEF9FEF4ECF2D
:104A0000C114D104E104F104E1F6232BD1F6CF0166
:104A10007FDDE0919604F0919704E00FF11F108A7A
:104A20001786CFCF10E000E090E080E0C12CD12CC1
:104A30007601CECF0097C9F610E000E0812C912CD2
:104A4000540183E0E82EF12C1AC0E0919604F09115
:104A50009704E00FF11F83819481029749F4F48257
:104A6000E38282E090E00E94491B80E40E94511B97
:104A7000FFEF8F1A9F0AAF0ABF0A0D5E1F4F80918A
:104A8000980490919904B0E0A0E088169906AA06CF
:104A9000BB06DCF290E080E0A8CF638174816230D5
:104AA000710511F4548343830196739635CF82E0E8
:104AB00090E09983888385EF9FEFF0CE0097B9F45B
:104AC0008FEFFB0180832091DF023091E00243E110
:104AD000429FC001439F900D1124E0919604F091F4
:104AE0009704E80FF91F8285FB01818308950C94D8
:104AF000001B88E090E0FA019183808390E080E0E1
:104B000008951092950410929404E6E9F4E086E08A
:104B1000DF011D928A95E9F78BE091E2909393046F
:104B20008093920408958091920490919304089543
:104B30002F923F924F925F926F927F928F929F92AD
:104B4000AF92BF92CF92DF92EF92FF920F931F939B
:104B5000CF93DF93CDB7DEB72F970FB6F894DEBFB4
:104B60000FBECDBFF894E0919404F0919504319676
:104B7000F0939504E09394047894409096045090B8
:104B800097044114510409F40CC2E0919804F09187
:104B90009904EF2B09F405C22D8749875A876B8743
:104BA0007C8798878F831201B12CA12C10E000E044
:104BB0008091980490919904A816B90618F40115EB
:104BC000110529F1F894809194049091950401972E
:104BD00090939504809394047894C8012F960FB60F
:104BE000F894DEBF0FBECDBFDF91CF911F910F9123
:104BF000FF90EF90DF90CF90BF90AF909F908F90FD
:104C00007F906F905F904F903F902F90089571012B
:104C1000E418F508D10117968C91179781FD54C0BF
:104C200013968D919C911497039709F04DC015969A
:104C30008D919C91EF81F8858E179F0709F044C0F4
:104C4000B50190E080E07FD48A8320919604309172
:104C500097043D832C833D85332309F44CC04C815C
:104C60005D81452B09F49AC1809198049091990433
:104C7000A816B90608F092C1C501D8D88823E9F072
:104C80006C817D816E0D7F1D7D836C83DB011F96A2
:104C90008D919C91892B89F0D12CC12CF12CE12C88
:104CA000AC81BD8112968C9112978E151F0409F06C
:104CB00094F450961C921E921F972A81222321F071
:104CC000B50190E080E041D43FEFA31AB30A43E17D
:104CD000240E311C6DCFAC81BD81ED91FC91EC0DAA
:104CE000FD1D858196810CD7BFEFEB1AFB0AEDE025
:104CF000CE0ED11CD5CFEC81FD81309709F44EC189
:104D00008091980490919904A816B90608F046C1BC
:104D1000EE0DFF1DFF87EE87C50188D88B838823A2
:104D200039F1AE85BF851F968D919C915097019664
:104D300021E01D964D915C918417950709F020E0C4
:104D40002E831982712C10E000E0AE85BF8512968B
:104D50008C91781608F45DC0EE85FF858785908973
:104D60000196658576850E945C45908B8787A5CFE7
:104D7000B1E0BE83E6CF992493946BC088D6F60148
:104D80009683858382C0D601ED90FC90B7E06B9E40
:104D9000E00CF11C1124F7016381748180818F3F45
:104DA00061F121E030E002C0220F331F8A95E2F763
:104DB000C901092E000CAA0BBB0BFB0140815181DC
:104DC0006281738184239523A623B72321E0892B55
:104DD0008A2B8B2B09F420E0D4012C93D701119658
:104DE0008C91F60123853485820F932F911D880EB7
:104DF000991E1486138663949BC0418150E0C401C0
:104E00000E94CF45EBCF998206EF1FEFC5C01982F4
:104E1000C3C0F981F111A0CFEDE07E9E7001112495
:104E2000AE85BF85CD90DC90CE0CDF1C15D49D8364
:104E30008C83BB81BB2309F49ECF81E0EE85FF8587
:104E400027853089232B09F080E0982E882309F4E8
:104E500058C0672D8E859F850DD8D60118969C93D6
:104E60008E93179761E070E0C2D4EE85FF852189AB
:104E700032892F3F320709F481CFBC01C901CCD759
:104E8000D60116969C938E931597D60115968D9103
:104E90009C911697009709F4B6CFEC81FD818E0F97
:104EA0009F1F1A969C938E931997AE85BF85ED919F
:104EB000FC911197EE0EFF1EF701218532851486B5
:104EC00013861A968C91870DD9018D93711016C097
:104ED000EE85FF85878184FF11C049855A856B85E2
:104EE0007C85F9014183528363837483F701838551
:104EF00094850496A80FB91F14861386F701B2870C
:104F0000A187D60115968D919C911697892B09F44E
:104F100043C0EE85FF85258136818091D502909131
:104F2000D6022817390779F019968D909C90612C3C
:104F3000D60112968C911297681608F424CF1A960F
:104F40009C928E921997BE81BB2309F460CF61E0D9
:104F500070E0F601878190854AD4D6011796ED90CE
:104F6000FC90189715964D915C91E1E0F0E0BA81C4
:104F7000BB2311F0F0E0E0E00C811D819C01B50144
:104F8000882799278E1B9F0B6AD38C01892B21F0D0
:104F9000F60185819681B4D57394D7CE0FEF1FEFBC
:104FA0008CCE10E000E00ECE2F923F924F925F9297
:104FB0006F927F928F929F92AF92BF92CF92DF9229
:104FC000EF92FF920F931F93CF93DF9380919604FC
:104FD0009091970410E000E0892BA9F0C8DA0AEF5D
:104FE0001FEF882381F02090980430909904C0919D
:104FF0009604D0919704D12CC12C10E000E02C1421
:105000003D04A9F47894C801DF91CF911F910F91CD
:10501000FF90EF90DF90CF90BF90AF909F908F90D8
:105020007F906F905F904F903F902F900895C601B2
:105030000E94161F882309F18B819C810397E9F454
:105040008F859889892BC9F0B60190E080E07BD2EA
:1050500021E030E0882311F030E020E044245524A2
:10506000421A530AB12CA12C912C812C8A818815CB
:10507000190409F038F4188A1F864FEFC41AD40AAD
:105080006396BDCFE881F981EA0DFB1D858196818C
:10509000892BA1F161E070E087819085A8D33C0164
:1050A000DBD28C01E881F981EA0DFB1D81859285B7
:1050B00025813681200F311FAC01421B530B9A0111
:1050C00047815085421B530B70E060E00E94D84539
:1050D000E881F981EA0DFB1DE780F0844581568166
:1050E0009301B601C201BBD28C01892B39F0E88152
:1050F000F981EA0DFB1D8581968102D55FEF851A46
:10510000950A8DE0A80EB11CB1CF31CA78940895EC
:105110002F923F924F925F926F927F929F92AF92A7
:10512000BF92CF92DF92EF92FF920F931F93CF9394
:10513000DF9300D000D0CDB7DEB700919604109178
:105140009704992493940115110509F43EC0A09089
:105150009804B09099040BDA982E8823B1F110923C
:105160009704109296041092990410929804109249
:105170009A0410929B048FEF9FEFDC018093DF0273
:105180009093E002A093E102B093E20278947FD37F
:105190001E830D83C12CD12C7601C501B0E0A0E0A7
:1051A00089839A83AB83BC8322242A94322C8981FD
:1051B0009A81AB81BC81C816D906EA06FB06F4F0D9
:1051C000C8019ED480E40E94571B892D26960FB6F5
:1051D000F894DEBF0FBECDBFDF91CF911F910F912D
:1051E000FF90EF90DF90CF90BF90AF909F907F9017
:1051F0006F905F904F903F902F900895AD81BE814A
:1052000015968D919C9116972091D5023091D602DA
:1052100082179307D1F451968D919C91EBD5ED8136
:10522000FE8180819181B12CA12C412C512C320125
:10523000892B89F5BFEFCB1ADB0AEB0AFB0AED815C
:10524000FE817396FE83ED83B2CFC114D104E104D5
:10525000F10429F7892B19F7ED81FE818189928963
:105260008F3F980709F026D5AD81BE8152963C92BA
:105270002E925197D4CF8A0D9B1DDC018D919C916C
:10528000009709F03DD4BFEF4B1A5B0A6B0A7B0A0B
:10529000EDE0AE0EB11CAD81BE818D919C91119758
:1052A00012964C9150E070E060E044165506660698
:1052B00077060CF325D4BECFCF93DF93EA0128DF26
:1052C000811109C082E090E09983888385EF9FEF88
:1052D000DF91CF91089581E090E00E94491B81E029
:1052E00090E09983888390E080E0F2CF11DF109204
:1052F000930410929204089542E050E06AE673E04D
:105300000C94671BFF920F931F93CF93DF938A0137
:10531000EC01C60FD71FF980B9D20897F816190605
:1053200071F068F082E090E0F801918380838EEF65
:105330009FEFDF91CF911F910F91FF9008956C81A6
:105340007D818E819F814B810E94FC1D811108C04F
:1053500082E090E0F8019183808384EF9FEFE9CFB2
:10536000F9800E94F71D4F2D50E0BE01685F7F4F0E
:105370000E94CF4589810E94661E81E090E0F8017D
:105380009183808390E080E0D4CFDF92EF92FF9210
:105390000F931F93CF93DF938A01EC01C60FD71FA2
:1053A0000E94F71D7C01D98071D2DD2059F002974F
:1053B00021E030E0D816190619F010F030E020E0B6
:1053C000232B79F482E090E0F801918380838EEFC3
:1053D0009FEFDF91CF911F910F91FF90EF90DF90A2
:1053E0000895EF2841F482E090E0F80191838083F2
:1053F00084EF9FEFEECFF9800E94F71D4F2D50E014
:10540000BE016E5F7F4F0E94CF4589810E94661E5C
:1054100081E090E0F8019183808390E080E0D9CF33
:105420008CE799E290939D0480939C040895809169
:105430009C0490919D0408950895FC0111821082AE
:10544000938382830895DB011D921C92DC011296E6
:10545000ED91FC9113977183608313967C936E9307
:1054600012970895FC0180819181DB018D939C93BB
:10547000A081B181109741F08D919C91918380839F
:10548000892B11F4F383E2830895FC0180819181DB
:10549000DB018D939C93892B11F473836283718359
:1054A00060830895FC0111821082938382830895A2
:1054B000CF93DF931F921F92CDB7DEB71A82198266
:1054C000F894BE016F5F7F4F83EA94E0CBDF898160
:1054D0009A81009709F014D389819A81892B89F7E1
:1054E000BE016F5F7F4F87EA94E0BCDF89819A81BC
:1054F000009709F005D389819A81892B89F77894DF
:105500000F900F90DF91CF910895CF93DF931F926B
:105510001F92CDB7DEB71A821982F894BE016F5F71
:105520007F4F8FE994E09EDF89819A81009709F08F
:10553000E7D289819A81892B89F778940F900F900F
:10554000DF91CF91089581E0089590E080E0089583
:10555000EF92FF920F931F93CF93DF931F921F92AF
:10556000CDB7DEB71A82198280919E0407EF1FEF34
:105570008823A1F1F894BE016F5F7F4F87EA94E022
:1055800071DF789489819A81EE24E394F12C892B40
:1055900051F4F894BE016F5F7F4F83EA94E062DFBD
:1055A0007894F12CE12C89819A810EEF1FEF0097FE
:1055B000A9F0FC014281538164E070E070D68C0157
:1055C000892B61F0F89469817A81C701880F991F4E
:1055D000880F991F8D559B4F58DF7894C8010F9005
:1055E0000F90DF91CF911F910F91FF90EF90089551
:1055F0000F931F93CF93DF9300D01F92CDB7DEB7E9
:105600001C821B821A82198280919E0407EF1FEF71
:105610008823C1F0AE014D5F5F4F64E070E0CE01C2
:105620000196B0D68C01892B69F4E981FA818B81CE
:105630009C8193838283F89469817A818FE994E0D5
:1056400002DF7894C8010F900F900F900F90DF91B8
:10565000CF911F910F910895B5D7049608958F9219
:105660009F92AF92BF92CF92DF92EF92FF920F93F1
:105670001F93CF93DF931F921F92CDB7DEB71A828D
:105680001982BC016F5F7F4F6330710598F0AA24C7
:10569000AA94BA2CC5010F900F90DF91CF911F9162
:1056A0000F91FF90EF90DF90CF90BF90AF909F90C1
:1056B0008F9008954115510551F3480159018A0110
:1056C0006C01CADF8815990511F7E114F104F9F2AC
:1056D0008E0D9F1DA816B906D0F280919E048823D6
:1056E000F1F0F894B501645071099701AE014F5F74
:1056F0005F4FC8010496DBD65C01892B71F4898168
:105700009A81F80193838283C601880F991F880FBD
:10571000991FB8018D559B4F96DE7894BBCF87EFCC
:10572000A82EBB24BA94B6CFAF92BF92CF92DF928D
:10573000EF92FF920F931F93CF93DF931F921F92CD
:10574000CDB7DEB71A821982892B09F047C06115DF
:10575000710509F443C04115510509F43FC02115F5
:10576000310509F43BC001151105C1F180919E047A
:105770008823B9F179016A015B01F894BE016F5F7A
:105780007F4F8FE994E06EDE789489819A8100974B
:1057900059F1DC0112966D917C91A8010496A0D676
:1057A0008C01E981FA81D501ED93FC93828193818B
:1057B0000496F601918380834FDFD7018D939C93EC
:1057C000C8010F900F90DF91CF911F910F91FF9023
:1057D000EF90DF90CF90BF90AF9008950FEF1FEF45
:1057E000EFCF07EF1FEFECCF0EEF1FEFE9CFCF9317
:1057F000DF93EC01672B71F4EED68C179D0760F0F8
:10580000E1D62496C80FD91FE0D68C0F9D1FDF91DB
:10581000CF910895DDD6F1CF90E080E0F8CF0F93DF
:105820001F93CF93DF9320919E0421112BC08B01F6
:10583000EC0183EA94E001DE87EA94E0FEDD8FE983
:1058400094E0FBDD97D00097C1F4C5D670E060E02E
:10585000CEDF43EE52E062E070E07ED1009769F463
:105860008091E3029091E402C8D6B801CE01FDD444
:10587000009719F421E020939E04DF91CF911F91AE
:105880000F91089584EF9FEFF8CFA2C6A4C6CF93DF
:10589000DF93A4D6EC01892B11F40ADE36DECE01AB
:1058A000DF91CF910895CF93DF9398D6EC01892BA8
:1058B00009F4FEDDCE01DF91CF9108958091E302DE
:1058C0009091E4020895CF93DF9380919E04D0E0FD
:1058D000C0E08823D1F096D6EC01892BB1F4E8DD45
:1058E00014DE8091E3029091E402E4D1E5D2EC0170
:1058F000892B59F483EA94E0D5DD87EA94E0D2DD80
:105900008FE994E0CFDD10929E04CE01DF91CF911C
:105910000895EF92FF920F931F93CF93DF93EC01C3
:105920007A018B010F5F1F4F0E9DA0010F9D500D3F
:105930001E9D500D112470E060E00E94D84590E05B
:1059400080E0F0E0E0E02FEFE816F90639F4DF91AF
:10595000CF911F910F91FF90EF9008951A821982B5
:105960002883309711F0D283C1830196FE01C00FC6
:10597000D11FEACFCF92DF92EF92FF920F931F9346
:10598000CF93DF9304EA15E00C7F43E050E065EE2F
:1059900072E08BEE92E016D485EEE82E82E0F82ECF
:1059A0009BEEC92E92E0D92ECBE0D6E0D7014D91E7
:1059B0005D917D01F601619171916F0119830883F9
:1059C0005D834C835B834A837F836E839B012F5F60
:1059D0003F4F249FC001259F900D349F900D1124AF
:1059E000998788870115110511F0C80192DF888514
:1059F0009985080F191F2A96FBEEEF16F2E0FF06B5
:105A0000A9F6EDEAF4E084EFDF011D928A95E9F74B
:105A10001092AC041092AB0410922A061092290640
:105A200010922E0610922D0610922C0610922B0624
:105A30001092300610922F06109232061092310604
:105A400010923406109233061092380610923706E0
:105A5000109236061092350610923A0610923906C8
:105A600010923C0610923B06109208061092070610
:105A700010920A061092090690E080E0DF91CF9123
:105A80001F910F91FF90EF90DF90CF9008950097B6
:105A9000F1F0F894ABEEB2E0EBE0F6E030E020E0BD
:105AA0004D915D9148175907A8F0428153814115E6
:105AB000510581F08AE0829FF001839FF00D11244F
:105AC000E55FF94F80819181009759F4789490E0D7
:105AD00080E008952F5F3F4F3A962330310501F75C
