:1000000008C1000037C1000035C1000033C1000045
:1000100031C100002FC100002DC100002BC1000024
:1000200029C1000027C1000025C1000023C1000034
:1000300021C100001FC100001DC100001BC1000044
:1000400019C100000C94672815C1000013C10000FD
:100050000C9415230FC100000DC100000C94742AEC
:1000600009C100000C94742D0C94AA2D03C100004A
:1000700001C10000FFC00000FDC00000FBC0000087
:100080000C949428F7C00000F5C00000F3C00000F5
:100090000C94002E0C94362EEDC00000EBC0000036
:1000A000E9C00000E7C000000C94C128E3C00000D4
:1000B000E1C00000DFC00000DDC000000C94EE28AD
:1000C000D9C00000D7C00000D5C000000C948C2E11
:1000D0000C94C22ECFC000000C94182F0C944E2FFD
:1000E000C9C0000005A84CCDB2D44EB93836A9021B
:1000F0000C50B9918688083CA6AAAA2ABE00000026
:10010000803F00000A0B02090C0D0E0807030401D2
:1001100000000000000000000000000000000000DF
:1001200000000000000000000000000000001211AC
:1001300010000000000000000000000000000000AF
:10014000000000000000000001021020200808103C
:100150002040102040800201020108040201010237
:100160000408102040808040201008040201800410
:10017000020180402010080402010804020101026B
:10018000040810204080010204081020408005056A
:100190000505070508080808020202020A0A0808FD
:1001A000040404040101010101010101030303032B
:1001B00003030303040707070C0C0C0C0C0C0C0CBA
:1001C0000202020206060606060606060B0B0B0BCB
:1001D0000B0B0B0B00002200250028002B002E002B
:1001E0003100340002010000050108010B0100008C
:1001F0002100240027002A002D00300033000101D7
:100200000000040107010A014D01D32D5F2EEB2EE2
:10021000772F11241FBECFEFD1E2DEBFCDBF00E0AC
:100220000CBF12E0A0E0B2E0E2E6F1E600E00BBFB6
:1002300002C007900D92A03EB107D9F727E0A0EECB
:10024000B2E001C01D92A539B207E1F711E0C9E0A3
:10025000D1E000E006C021970109802FFE010E9435
:100260007E30C430D10780E00807A9F70E94362409
:100270000C94AF30C5CE70E023E0829FC001112402
:1002800080529D4F0C94DF2970E023E0829FC001D3
:10029000112480529D4F0C941B2A80EE92E00E9404
:1002A0001B2983EE92E00E941B2986EE92E00C94BB
:1002B0001B2990E080E008950F931F93009709F4A5
:1002C00087C06115710509F483C000913002109157
:1002D000310220913202309133020E3F1F4F2F4FD7
:1002E0003F4F09F066C04FEF5FEFBA014093300215
:1002F0005093310260933202709333024091300286
:10030000509131026091320270913302DC011296F9
:10031000ED91FC9180819181A281B38180935903F9
:1003200090935A03A0935B03B0935C0384819581FF
:10033000A681B7818093550390935603A0935703EA
:10034000B093580380859185A285B385809351032E
:1003500090935203A0935303B093540384859585DF
:10036000A685B78580934D0390934E03A0934F03CA
:10037000B09350031092490310924A0310924B031A
:1003800010924C039BD683E898E09093EA02809306
:10039000E9029093EC028093EB027FD5009731F451
:1003A00021E030E030935E0320935D031F910F91B5
:1003B0000895009130021091310220913202309163
:1003C0003302DB010D931D932D933C93139796CF2E
:1003D0008FEF9FEFEBCF8F929F92AF92BF92CF9212
:1003E000DF92EF92FF921F93CF93DF934B015C015B
:1003F0001091600382E090E090935E0380935D0330
:1004000081149104A104B10441F48091600381112D
:1004100004C080915F03C1E08111C0E0C12CD12CE8
:10042000760180916003811106C080915F03811184
:1004300002C0CC23D9F083E090E090935E038093D8
:100440005D03CC2379F1CCE9DFEF111102C00E94EA
:10045000E70BCE01DF91CF911F91FF90EF90DF90DE
:10046000CF90BF90AF909F908F9008956AE070E01A
:1004700080E090E00E94E32A80E1C80E87E2D81E67
:10048000E11CF11C8FEF88169806A806B80631F01B
:10049000C1E08C149D04AE04BF0408F0C0E080E00D
:1004A00030D5BFCFD0E0C0E0D0CFCF92DF92EF9277
:1004B000FF920F931F93CF93DF938F3F910511F01E
:1004C00008F050C020915D0330915E032330310568
:1004D00039F020915D0330915E032130310531F414
:1004E00024E030E030935E0320935D036A017B01DA
:1004F000EC0182309105A0F011E0AE01C701B60118
:10050000CBD4AB01BC01CE011123F9F0DF91CF9127
:100510001F910F91FF90EF90DF90CF900C94100EF1
:100520008C01000F111F07511D4FD8018D919C9117
:10053000892B11F30E941A0E0297F1F6D801ED9162
:10054000FC91CE011995182FD8CF0E94320E90E061
:1005500080E0DF91CF911F910F91FF90EF90DF909E
:10056000CF9008958FEF9FEFF4CF80E0CAC4CF9370
:10057000DF9386E090E090935E0380935D031AD54D
:10058000EC01E9EEF2E084E0DF011D928A95E9F7E3
:100590000E947F0B10925E0310925D03CE01DF91EB
:1005A000CF91089580915F03089580914803089545
:1005B0006093300270933102809332029093330241
:1005C00090E080E00895CF92DF92EF92FF926B016E
:1005D0007C019F7720E030E040E859E50E94362515
:1005E00087FF2BC020E030E040E05FE3C701B601A9
:1005F0000E94D32687FD0EC020E030E040E05FE39C
:10060000C701B6010E94BF24FF90EF90DF90CF900A
:100610000C940B2620E030E040E05FEBC701B60110
:100620000E94D326181684F420E030E0A901C70107
:10063000B6010E94D7266B017C01C701B601FF906D
:10064000EF90DF90CF90089520E030E040E05FE34E
:10065000C701B6010E94BE24FF90EF90DF90CF90BB
:100660000C9423254F925F926F927F928F929F926C
:10067000AF92BF92CF92DF92EF92FF926091840788
:100680007091850780918607909187070E94D025F9
:1006900020910C0230910D0240910E0250910F02F8
:1006A0000E94BF249B01AC010E94BF242BED3FE0C0
:1006B00049E450E40E94D7262091080230910902B3
:1006C00040910A0250910B020E943A250E943A275B
:1006D00020910002309101024091020250910302E8
:1006E0000E94D72620910402309105024091060213
:1006F000509107020E94BF2420E030E044EB52E416
:100700000E94BF246B017C0120E030E0A9010E941F
:10071000362587FDFEC120E030E044E353E4C70105
:10072000B6010E94D32664EB1816DCF0C701B601AF
:100730004ADF6B017C0120E030E040E853E40E9496
:1007400036256FEF87FF0DC020E030E0A901C7011B
:10075000B6010E94D32687FDDCC1C701B6010E9405
:10076000A22580E091DD60918807709189078091D2
:100770008A0790918B070E94D02520911C0230910E
:100780001D0240911E0250911F020E94BF249B0136
:10079000AC010E94BF242BED3FE049E450E40E94ED
:1007A000D726209118023091190240911A025091D7
:1007B0001B020E943A250E943A2720911002309194
:1007C000110240911202509113020E94D7262091EB
:1007D00014023091150240911602509117020E94A6
:1007E000BF2420E030E044EB52E40E94BF246B01C0
:1007F0007C0120E030E0A9010E94362587FD8BC1F5
:1008000020E030E044E353E4C701B6010E94D32660
:1008100064EB1816DCF0C701B601D5DE6B017C0174
:1008200020E030E040E853E40E9436256FEF87FF78
:100830000DC020E030E0A901C701B6010E94D32617
:1008400087FD69C1C701B6010E94A22581E01CDDB8
:1008500060918C0770918D0780918E0790918F0722
:100860000E94D02520912C0230912D0240912E0221
:1008700050912F020E94BF249B01AC010E94BF2413
:100880002BED3FE049E450E40E94D7262091280256
:100890003091290240912A0250912B020E943A2560
:1008A0000E943A2720912002309121024091220299
:1008B000509123020E94D7262091240230912502D4
:1008C00040912602509127020E94BF2420E030E090
:1008D00044EB52E40E94BF246B017C0120E030E035
:1008E000A9010E94362587FD18C120E030E044E3CD
:1008F00053E4C701B6010E94D32664EB1816DCF05E
:10090000C701B60160DE6B017C0120E030E040E809
:1009100053E40E9436256FEF87FF0DC020E030E0E2
:10092000A901C701B6010E94D32687FDF6C0C70101
:10093000B6010E94A22582E0A7DC60918407709135
:10094000850780918607909187076F5F7F4F8F4F54
:100950009F4F6093840770938507809386079093D9
:1009600087070E94D025209108023091090240910A
:100970000A0250910B020E943625811108C0109284
:10098000840710928507109286071092870760915E
:1009900088077091890780918A0790918B076F5F14
:1009A0007F4F8F4F9F4F6093880770938907809385
:1009B0008A0790938B070E94D025209118023091CE
:1009C000190240911A0250911B020E943625811192
:1009D00008C0109288071092890710928A07109217
:1009E0008B0760918C0770918D0780918E07909195
:1009F0008F076F5F7F4F8F4F9F4F60938C07709370
:100A00008D0780938E0790938F070E94D0252091A9
:100A100028023091290240912A0250912B020E9413
:100A20003625811108C010928C0710928D07109204
:100A30008E0710928F07C0901B03D0901C03E0908C
:100A40001D03F0901E038FEFC81AD80AE80AF80AAF
:100A5000C0921B03D0921C03E0921D03F0921E0370
:100A6000C114D104E104F10499F480911F03909121
:100A70002003A0912103B09122030196A11DB11D75
:100A800080931F0390932003A0932103B09322032C
:100A90008090230390902403A0902503B090260318
:100AA00060911F0370912003809121039091220394
:100AB0000E94CE25A50194010E94D72620E030E0B7
:100AC00040E85FE40E94D7262B013C01C701B60134
:100AD0000E94CE25A50194010E94D7269B01AC015E
:100AE000C301B2010E94BF246093170370931803DF
:100AF0008093190390931A03FF90EF90DF90CF90AB
:100B0000BF90AF909F908F907F906F905F904F902D
:100B1000089560E026CE60E099CE60E00CCFCF92E1
:100B2000DF92EF92FF921F93CF93DF93E1E0F3E028
:100B30008BE2DF011D928A95E9F780E090E0A0E862
:100B4000BFEB86A397A3A0A7B1A78DEC9CECACEC60
:100B5000BDE382A393A3A4A3B5A388E993E0A3EF85
:100B6000BAEF84839583A683B78380EF91E5AFE5E1
:100B7000B9E280879187A287B3878CE499E8A0E3E4
:100B8000BFE284879587A687B78785EE96E2A2EEB7
:100B9000BAED808B918BA28BB38BA5EFB2E0B383C0
:100BA000A283EDEEF2E01196FC93EE938DE492E0D9
:100BB00091838083938382839583848397838683C1
:100BC00085E193E015969C938E93149785E093E0CE
:100BD00013969C938E93129787E193E017969C93BC
:100BE0008E931697C2E7D7E081E2FE0111928A95B3
:100BF000E9F711E018A3C12CD12C7601C394CD865E
:100C0000DE86EF86F88A69E080E035DB198B1E828C
:100C10001F8FCF82D886E986FA8662E081E02BDBDF
:100C20001B8718821E8FC982DA82EB82FC826CE0FD
:100C300082E021DB1D831A8A1B8A1C8A1D8A1E8A78
:100C40001F8A188E198E1A8E1B8E1C8E1D8EDF9198
:100C5000CF911F91FF90EF90DF90CF9008958091FA
:100C60007E07811103C081E080937E078091780721
:100C7000811103C081E08093780780917207811110
:100C800003C081E08093720708954F925F926F9244
:100C90007F928F929F92AF92BF92CF92DF92EF920C
:100CA000FF920F931F93F8944090380350903903AC
:100CB00060903A0370903B03C0902C03D0902D03BA
:100CC000E0902E03F0902F03452B09F0A6C09B0166
:100CD000AC01241935094609570929013A01009147
:100CE00034031091350320913603309137034801C6
:100CF0005901840C951CA61CB71C80169106A206EF
:100D0000B306A0F400913003109131032091320317
:100D1000309133030F5F1F4F2F4F3F4F009330032E
:100D200010933103209332033093330380923403C2
:100D300090923503A0923603B092370300913003AE
:100D400010913103209132033091330380923C03A0
:100D500090923D03A0923E03B0923F030093400364
:100D6000109341032093420330934303609338036D
:100D70007093390380933A0390933B03A30192014C
:100D800060EA76E881E090E00E9411306C0D7D1DF4
:100D90008E1D9F1D60932C0370932D0380932E0353
:100DA00090932F0300913002109131022091320272
:100DB000309133020F3F1F4F2F4F3F4FF1F0009103
:100DC00030021091310220913202309133020E3FF5
:100DD0001F4F2F4F3F4F89F0C0903002D09031020B
:100DE000E0903202F090330221E08C149D04AE04B6
:100DF000BF0408F420E02093480378941F910F91DA
:100E0000FF90EF90DF90CF90BF90AF909F908F902A
:100E10007F906F905F904F9008954B015C01841814
:100E20009508A608B708A3019201261B370B480BAB
:100E3000590B6415750586059705E0F08216930633
:100E4000A406B50640F420E030E0A9018114910425
:100E5000A104B104A1F460EA76E881E090E00E9488
:100E60001130A7019601261B370B480B590BCA01FD
:100E7000B901C3CF82169306A406B50660F7A50193
:100E8000940160EA76E881E090E00E9411306C0DF8
:100E90007D1D8E1D9F1DB1CFF8CECF93DF9300D067
:100EA0001F92CDB7DEB71C821B821A821982109264
:100EB0004403109245031092460310924703BE016B
:100EC0006F5F7F4FCE0103960E94E52269817A8190
:100ED0008B819C810E94361D009761F4BE016F5F7B
:100EE0007F4FCE0103960E94F12269817A818B8126
:100EF0009C812ED50F900F900F900F90DF91CF9186
:100F00000895FF920F931F93CF93DF93082F60E014
:100F100070E0CB010E94E32AFF24F3940E941F1C7F
:100F2000EC01892B89F010E0CE3F8FEFD80769F0F4
:100F3000002361F160E070E0CB010E94E32A81E0D0
:100F400090E0892B59F322C011E025D5EC01892BC3
:100F500021F0CE3F8FEFD80759F711111EC011E0D5
:100F6000229609F410E00E94CF1BEC01892B21F09E
:100F7000CE3F8FEFD807E1F6111111C011E0CE3F3F
:100F80008FEFD80709F410E001110BC0CE01DF91FB
:100F9000CF911F910F91FF90089511E0E4CF11E0E0
:100FA000F3CF60E070E0CB010E94E32A1F25812F80
:100FB00090E0C7CFCF93DF9380914803882321F03F
:100FC00060E070E0CB014CD635D6D0E0C0E0892B94
:100FD00071F06AE070E080E090E00E94E32A81E036
:100FE00090DF28D62196C03D27E0D20781F727D68B
:100FF0000E948A1D1092600310925F0310925903A1
:1010000010925A0310925B0310925C0310925503E6
:1010100010925603109257031092580310925103E6
:1010200010925203109253031092540310924D03E6
:1010300010924E0310924F031092500310924903E6
:1010400010924A0310924B0310924C034EEF5FEF45
:101050006FEF7FEF40933002509331026093320282
:101060007093330210924803ECE3F3E028E0DF01D1
:101070001D922A95E9F710923803109239031092C5
:101080003A0310923B0310923403109235031092EE
:1010900036031092370310923003109231031092EE
:1010A00032031092330310922C0310922D031092EE
:1010B0002E0310922F03DF91CF91089510926C03AD
:1010C00010926D0310926E0310926F0310926B03D7
:1010D000809174039091750390936A0380936903E0
:1010E00010926803109267031092630310926403D6
:1010F00010926503109266031092710310927003B0
:1011000090E080E00895CF92DF92EF92FF920F93EC
:101110001F93CF938C01892B09F055C02091740344
:10112000309175038091690390916A034091740333
:101130005091750350936A03409369032817390748
:1011400081F010926803109267031092630310926B
:10115000640310926503109266031092710310925B
:1011600070038091740390917503019761F58091EC
:10117000700390917103892B21F4809134028111C5
:1011800012C080917003909171030197E1F48091F6
:10119000630390916403A0916503B0916603019786
:1011A000A105B10581F410926303109264031092BB
:1011B0006503109266031092340282E090E09093EF
:1011C000710380937003809174039091750301976C
:1011D00009F01CC180918A0390918B0380179107BD
:1011E00009F014C18091860390918703A091880330
:1011F000B0918903009709F409C120918503211159
:101200000DC04091860350918703609188037091CF
:101210008903452B462B472B09F4F8C02091700316
:10122000309171032230310509F0F0C0209167033D
:101230002111ECC0FC01C080D180E280F38080915C
:101240006B03882309F4D3C08091770390917803CE
:10125000892B09F4FDC0209177033091780381E058
:101260002230310509F080E0209177033091780336
:10127000C1E02130310549F02091770330917803A6
:10128000C1E02230310509F0C0E0882309F456C0DE
:101290002091810330918203409183035091840314
:1012A000C701B6010E94D32687FD14C02091810397
:1012B00030918203409183035091840360916C03C9
:1012C00070916D0380916E0390916F030E9436259B
:1012D00087FD22C0209181033091820340918303D6
:1012E00050918403C701B6010E94D326181634F525
:1012F00020918103309182034091830350918403B4
:1013000060916C0370916D0380916E0390916F03F7
:101310000E943625811112C08091790390917A0341
:10132000A0917B03B0917C03892B8A2B8B2B19F422
:1013300081E08093680381E080936703CC2309F404
:1013400056C02091810330918203409183035091D4
:101350008403C701B6010E94362587FF14C020917F
:101360008103309182034091830350918403609103
:101370006C0370916D0380916E0390916F030E94D6
:10138000D32687FF22C020918103309182034091B0
:10139000830350918403C701B6010E943625811151
:1013A00026C02091810330918203409183035091A4
:1013B000840360916C0370916D0380916E03909132
:1013C0006F030E94D326181694F4809179039091AC
:1013D0007A03A0917B03B0917C03892B8A2B8B2B02
:1013E00019F481E08093680381E08093670381E0D2
:1013F00090916703911180E080936B03C0926C031E
:10140000D0926D03E0926E03F0926F03012B09F00E
:1014100067C18091700390917103892BD9F4109268
:1014200076031092670380913402882379F082E07A
:1014300090E0909371038093700310923402209196
:1014400074033091750381E0232BE9F080E01BC029
:1014500081E00ACF1092340280917603882349F00C
:101460001092680310927103109270031092760329
:10147000EDCF8091740390917503892BE1F08091F9
:10148000670310926703209170033091710322303B
:10149000310509F45EC088F42115310509F448C00E
:1014A0002130310509F4F3C01092680310926703EC
:1014B0001092760338C081E0E6CF2330310509F47D
:1014C000B1C02430310581F740916303509164032A
:1014D00060916503709166034115510561057105C1
:1014E00061F04150510961097109409363035093C0
:1014F00064036093650370936603409163035091A6
:1015000064036091650370916603452B462B472B5E
:10151000D9F420917203309173032130310509F021
:1015200046C01092680310927103109270030CC0B1
:1015300080913402882341F082E090E0909371031F
:1015400080937003109234021092610380916803BB
:10155000CEC08823C9F38091790390917A03A0913A
:101560007B03B0917C03181619061A061B060CF0B3
:101570007DC08091740390917503019709F076C046
:101580008091790390917A03A0917B03B0917C03C1
:101590008093630390936403A0936503B093660301
:1015A00083E090E09093710380937003CDCF4091DE
:1015B0007D0350917E0360917F0370918003452BE2
:1015C000462B472BA9F01092680380917D039091E0
:1015D0007E03A0917F03B091800380936303909377
:1015E0006403A0936503B093660381E090E0DACFD3
:1015F000882399F08091350290913602A0913702AC
:10160000B09138028093630390936403A0936503C1
:10161000B093660384E090E0C5CF1092680382E047
:1016200090E0C0CF8091630390916403A091650323
:10163000B09166030097A105B10559F00197A10982
:10164000B1098093630390936403A0936503B093FF
:1016500066038091630390916403A0916503B09148
:101660006603892B8A2B8B2B09F06ECF8091350274
:1016700090913602A0913702B0913802892B8A2BC3
:101680008B2B09F44ECF81E080936803B3CF409158
:101690006303509164036091650370916603411583
:1016A00051056105710561F04150510961097109E8
:1016B00040936303509364036093650370936603E0
:1016C00040916303509164036091650370916603D8
:1016D000452B462B472B09F037CF8111C7CF9FCF22
:1016E00080916103882309F431CF80916203CF9107
:1016F0001F910F91FF90EF90DF90CF90089510927F
:101700006C0310926D0310926E0310926F0310928F
:101710006B03109271031092700310926A0310927F
:10172000690310928B0310928A031092680310923F
:101730006703109263031092640310926503109282
:101740006603109262031092610310928603109256
:1017500087031092880310928903109285031092D8
:10176000810310928203109283031092840388EE07
:1017700093E0A0E0B0E08093350290933602A0930E
:101780003702B093380210927D0310927E031092BC
:101790007F03109280031092790310927A031092C3
:1017A0007B0310927C03109278031092770381E000
:1017B0008093340210927603109275031092740392
:1017C000109273031092720390E080E0089580916C
:1017D000740390917503892B19F580913402882345
:1017E00051F080917603811106C081E080936203FD
:1017F000809361030895209176033091340281E053
:1018000090E0332311F090E080E030E082239323D6
:10181000892B21F01092620381E0EACF10926103DC
:10182000089582E090E0FA01918380838FEF9FEF2B
:101830000895CF93DF93EA01009711F00E94041EF0
:101840001982188290E080E0DF91CF910895DB014A
:10185000009719F48FEF8C9308952EEF2C93FC01D1
:101860003F96EF30F10508F034C08827E55CF34F70
:101870008F4F0C947E30670C650C630C610C5F0C11
:101880005B0C5D0C590C570C550C520C4E0C4A0C51
:10189000500C690C80E311968C93089589E2FBCF7C
:1018A00082E2F9CF11961C92089583E2F4CF81E28F
:1018B000F2CF81E1F0CF87E2EECF8AE2ECCF80E198
:1018C000EACF84E2E8CF88E2E6CF86E2E4CF81E3A4
:1018D000E2CF80E2E0CF8091980390919903089540
:1018E00090939903809398030895809197030895A6
:1018F00090919703892B809397030895982F909543
:10190000809197038923809397030895809196038C
:101910000895809194039091950308956115710540
:1019200059F0FB0130E020E070E060E0241735075B
:1019300019F06115710511F0CB010895A081B181F5
:10194000A817B90709F4BF012F5F3F4F3696EECFB6
:1019500080919A0381111CC060D266D290938D034E
:1019600080938C030E94A8160E94BA16909391034C
:10197000809390030E94371B0E943E1B90938F031D
:1019800080938E0381E080939A0390E080E0089535
:1019900084EF9FEF08958F929F92AF92BF92CF9264
:1019A000DF92EF92FF920F931F93CF93DF9300D0BC
:1019B00000D000D01F92CDB7DEB71A8619861886E0
:1019C0001F821E821D821C821B821A8219828091B4
:1019D0009A0307EF1FEF882309F49CC08E010D5F67
:1019E0001F4F9E012B5F3F4FAE01495F5F4FBE010E
:1019F000675F7F4F90E080E00E94BB1C8C010097E6
:101A000021F00596029708F0DBC029853A8521155B
:101A1000310509F402C1ED80FE804B815C81B70184
:101A2000640F751F8F8198858617970708F4F5C096
:101A3000E20EF31ED7019C91903C09F07FC042302A
:101A4000510508F47BC011968C91409198035091F8
:101A50009903452B09F49CC0913F08F071C02CE11B
:101A6000290F2D3008F48BC02DE2290F203108F406
:101A700089C0903C21F48150823008F483C088E30F
:101A8000890F8B3008F481C097E2C92E9CE0D92ED3
:101A9000E1E1FCE06D817E81AE014F5F5F4F8985A2
:101AA0009A8519955C01C114D104A1F189809A80AD
:101AB0008114910479F18B819C818815990508F432
:101AC00087C010E000E04B815C8170E060E0C701FE
:101AD0000E94A83001151105E9F449815A816985F0
:101AE0007A858D819E81680F791FC501F601199550
:101AF000E980FA800D811E812F81388549855A85BC
:101B00006FEF7FEF81E090E00E94561C8C01892BE3
:101B100009F056C0C8012A960FB6F894DEBF0FBE72
:101B2000CDBFDF91CF911F910F91FF90EF90DF908C
:101B3000CF90BF90AF909F908F90089580E085CF19
:101B400030E020E0220F331FF901E457FC4F0190F1
:101B5000F081E02D309709F497CF892F90E0199507
:101B6000009709F491CFDC011296ED91FC91139747
:101B70001496CD90DC90309709F08CCF1FC021E0F7
:101B800030E0E0CF22E030E0DDCF23E030E0DACF1C
:101B9000D12CC12CE9E1FCE09F3F09F07BCFE09123
:101BA0008C03F0918D03309721F4C90104EF1FEFEE
:101BB0000CC08FEF90E019950097A9F604EF1FEF86
:101BC00089859A85009709F4A5CF0E94041EA2CFAB
:101BD0000E94851D8C0189859A850E94041E70E0F3
:101BE00060E0C4010E941E1D98878F830E94531CD1
:101BF0009E838D836F8178856115710559F0C801C9
:101C00000E94271F9A87898706EF1FEF892B09F00B
:101C100058CF59CF08EF1FEF56CF08EF1FEFD0CFA7
:101C200020919A03222319F020E00C94BF1687EF2D
:101C30009FEF0895809198039091990308950E94D1
:101C4000431B0E949D1AF5D0ECE8F3E088E0DF0129
:101C50001D928A95E9F710929A0390E080E008952A
:101C60000C94FB1821E040E050E0BA010C94BF1640
:101C700086E090E0FA019183808390E080E008950F
:101C800047E050E060E572E049CEDF92EF92FF92CC
:101C90000F931F93CF93DF938A01EC01C60FD71FD9
:101CA000E0909E03F0909F03D9800E946D1DD8168E
:101CB000190678F082E090E0F801918380838EEF3E
:101CC0009FEFDF91CF911F910F91FF90EF90DF90E9
:101CD0000895EF2841F482E090E0F8019183808339
:101CE00084EF9FEFEECF898180939D0390E0019672
:101CF000F8019183808390E080E0E3CFCF93DF937E
:101D0000EA010E94AC19882321F00E947A1D0E94EA
:101D1000AD1982E090E0998388838BEF9FEFDF918C
:101D2000CF910895CF93DF93EB0186E0FB011192F1
:101D30008A95E9F78FEF8883D8DD8983E7DD8A8389
:101D4000E8DD9D838C83DF91CF910895CF93DF935E
:101D5000EA010E94AF19811109C082E090E09983E5
:101D6000888385EF9FEFDF91CF91089590E080E029
:101D7000B7DD81E090E09983888390E080E0F3CF45
:101D80000F931F93CF93DF93EA018C01060F171F68
:101D90000E94AF1981110BC082E090E09983888383
:101DA00085EF9FEFDF91CF911F910F910895F8017B
:101DB0008181823038F082E090E0998388838EEFD1
:101DC0009FEFF0CF81E090E08BDD88E090E0998399
:101DD000888390E080E0E6CFCF93DF930097D1F443
:101DE000EB01FB01329686E0DF011D928A95E9F74F
:101DF0008FEF888385E089831A820E946D1D8B8313
:101E00000E946C1D9D838C8381E08E838F83DF9184
:101E1000CF910895DF91CF911ACD80E49EE0909309
:101E20009C0380939B03089580919B0390919C0356
:101E3000089510929C0310929B03089580919E0335
:101E400090919F030895411105C0611571058105A9
:101E5000910561F060939E0370939F038093A003AC
:101E60009093A1034093A20381E0089580E0089538
:101E7000FF920F931F93CF93DF938A01EC01C60F5C
:101E8000D71FF9800E946D1DF816190668F082E0D0
:101E900090E0F801918380838EEF9FEFDF91CF91E7
:101EA0001F910F91FF9008956C817D818E819F819C
:101EB0004B81C9DF811108C082E090E0F801918375
:101EC000808384EF9FEFEACF898180939D0390E028
:101ED0000196F8019183808390E080E0DFCFCF937B
:101EE000DF93EA01FC01E60FF71F648175818681AB
:101EF00097814381A8DF811109C082E090E0998336
:101F0000888384EF9FEFDF91CF91089581E090E087
:101F10009983888390E080E0F6CFEEE9F3E040819A
:101F2000518162817381480F511D611D711D408374
:101F30005183628373830895CF93C0919D034C2F87
:101F400050E060919E0370919F0301960E949F3024
:101F50008C2FE3DF10929D03CF910895009799F4A1
:101F600080919E0390919F032FEFFB012083892B8B
:101F700059F020919D0330E02F5F3F4F2417350724
:101F800019F4CB01D9CF63CC0895009799F48091CF
:101F90009E0390919F032FEFFB012083892B59F023
:101FA00020919D0330E02F5F3F4F2417350719F430
:101FB000CB01C2CF4CCC089523E1AC01249FC001DA
:101FC000259F900D1124E091A703F091A803E80F3D
:101FD000F91F238134812250310981E022303105FB
:101FE00008F080E008950F931F93CF93DF93009143
:101FF000A9031091AA03D0E0C0E080E00C171D07F0
:1020000049F491E0811190E0892FDF91CF911F91E8
:102010000F9108958111F5CFCE01CEDF2196EECF3D
:10202000A091A703B091A803109729F12091A903CB
:102030003091AA0382179307F0F453E1589F90015F
:10204000599F300D1124A20FB31FED91FC911197F0
:10205000309789F012968C91681768F48DE0689F2C
:10206000E00DF11D112480819181892B21F081E007
:102070009281491708F080E008959C0143E1429F56
:10208000C001439F900D1124E091A703F091A80394
:10209000E80FF91F8385823091F481E090E065813B
:1020A00076814091390250913A026417750711F414
:1020B00090E080E0892B19F081E0232B09F080E08B
:1020C0000895FC01A081B1818DE0689FA00DB11D34
:1020D000112413964D915C9185859685489F9001BA
:1020E000499F300D589F300D1124C901019661118F
:1020F00003C0478144FD04960895EF92FF920F9329
:102100001F93CF93DF93EA01FC01E60FF71F0281D3
:102110001381E480F5804F2D6E2DC80181DF811180
:102120000DC082E090E0998388838EEF9FEFDF916E
:10213000CF911F910F91FF90EF900895C8013CDF60
:10214000882339F082E090E09983888388EF9FEFBD
:10215000EECF1093400200933F02E0924102F092D2
:10216000420281E090E09983888390E080E0DFCFB5
:10217000CF92DF92EF92FF920F931F93CF93DF9353
:102180007A01EC01C60FD71FC0903F02D0904002E9
:102190000091410210914202412F602FC60140DFA1
:1021A000811110C082E090E0F701918380838AEF73
:1021B0009FEFDF91CF911F910F91FF90EF90DF90F4
:1021C000CF900895C601F8DE882341F082E090E0C8
:1021D000F7019183808388EF9FEFEBCF4C815D8186
:1021E0006E817F819A8189818F3F41F082E090E00A
:1021F000F701918380838EEF9FEFDBCFE3E1EC9DCE
:102200009001ED9D300D1124E091A703F091A803FA
:10221000E20FF31F0190F081E02D2DE0029FE00D11
:10222000F11D11240190F081E02D27E0129FE00DB7
:10223000F11D1124808391838B8182834383548396
:10224000658376831F5F1093420281E090E0F7017F
:102250009183808390E080E0ACCFEF92FF920F9368
:102260001F93CF93DF937A018C01060F171FC09144
:10227000A703D091A803209781F021E030E0F80176
:10228000828193814091A9035091AA0384179507F5
:1022900010F030E020E0232B71F482E090E0F701B1
:1022A000918380838EEF9FEFDF91CF911F910F91EC
:1022B000FF90EF90089543E1489F9001499F300DB2
:1022C0001124C20FD31F78DE882341F082E090E012
:1022D000F7019183808388EF9FEFE6CFF801248197
:1022E000358120383105C8F687818111D6CF4181EB
:1022F000842F90E08F7E009741F082E090E0F7011C
:102300009183808386EF9FEFCFCF4F833E832D83D2
:10231000268128871986223010F421E0288721E0C1
:1023200030E0F70131832083BFCF88E090E0FA01ED
:102330009183808390E080E00895FB018FEF80839C
:1023400081E181838FEF9FEF9383828380E890E028
:1023500095838483168217820895FB018FEF808313
:1023600091E0918382839383848384E3858381E0F6
:1023700090E0978386830895DF92EF92FF920F9308
:102380001F93CF93DF93EA01FC01E60FF71F8181D2
:10239000813071F082E090E0998388838FEF9FEF26
:1023A000DF91CF911F910F91FF90EF90DF900895F3
:1023B00082819381D4802581E680F7800091A703F4
:1023C0001091A8030115110539F482E090E099837A
:1023D00088838CEF9FEFE4CF4091A9035091AA032B
:1023E0008417950738F082E090E0998388838EEF18
:1023F0009FEFD6CF892B39F082E090E099838883D4
:1024000086EF9FEFCDCF8D2D8D7FB1F72130A1F7D6
:1024100081E0D11006C091E0E916F10431F080E0CE
:1024200004C0E2E0EE16F104D0F3882329F390E033
:1024300080E0C2DD882339F082E090E099838883D0
:1024400088EF9FEFADCFF801D38681E08487F686D1
:10245000E586108A178681E090E09983888390E072
:1024600080E09ECF4CE050E06AE772E057CA8F925E
:102470009F92BF92CF92DF92EF92FF920F931F93A2
:10248000CF93DF93EA01FC01E60FF71F828193816E
:102490000481B580E091A703F091A803309791F4EF
:1024A00082E090E0998388838CEF9FEFDF91CF915A
:1024B0001F910F91FF90EF90DF90CF90BF909F9072
:1024C0008F9008952091A9033091AA038217930752
:1024D00038F082E090E0998388838EEF9FEFE6CF1B
:1024E00023E1289F6001299FD00C1124EC0DFD1DD4
:1024F000E080F180E114F10499F28281081748F735
:102500008DE0089F80011124E00EF11EF70180810B
:102510009181892B29F6BB20E1F2F7E0BF9E4001B3
:102520001124C4010E94011EF70191838083E09170
:10253000A703F091A803EC0DFD1D0190F081E02DA3
:10254000E00FF11F80819181009739F482E090E0E3
:10255000998388838DEF9FEFA9CFA40170E060E09D
:102560000E94A8308091A7039091A803C80ED91E9D
:10257000F60180819181080F191FF801B28281E074
:1025800090E09983888390E080E090CFAF92BF92F3
:10259000CF92DF92FF920F931F93CF93DF93EA01C5
:1025A000FC01E60FF71F82819381F4800091A7035D
:1025B0001091A8030115110581F482E090E0998340
:1025C00088838CEF9FEFDF91CF911F910F91FF9048
:1025D000DF90CF90BF90AF9008952091A9033091E4
:1025E000AA038217930738F082E090E099838883EA
:1025F0008EEF9FEFE8CF2FEF2F0D2C3FA8F723E1B1
:10260000289F6001299FD00C11240C0D1D1DF8017D
:1026100080819181892B89F6FDE0FF9E5001112474
:10262000C5010E94011EF80191838083E091A703F8
:10263000F091A803EC0DFD1D80819181009739F484
:1026400082E090E0998388838DEF9FEFBCCFA50156
:1026500070E060E00E94A830E091A703F091A80329
:10266000EC0DFD1DF28281E090E09983888390E07B
:1026700080E0A9CFCF92DF92EF92FF920F931F934A
:10268000CF93DF93860F971FFC0102811381809106
:10269000A7039091A803892B81F082E090E0FA01D2
:1026A000918380838CEF9FEFDF91CF911F910F91EA
:1026B000FF90EF90DF90CF900895C801B0E0A0E0C8
:1026C0000197A109B1098F3F9F4FA105B10540F0C6
:1026D00082E090E0FA01918380838EEF9FEFE4CF58
:1026E0007A0183E1809F6001819FD00C1124C60193
:1026F0000E94011EEC01009741F482E090E0F70196
:10270000918380838DEF9FEFCFCFA60170E060E0D3
:102710000E94A830D093A803C093A7031093AA03E4
:102720000093A90390E080E02FEF3FEF41E061E0EC
:1027300070E08017910741F481E090E0F701918308
:10274000808390E080E0B0CF3A8B298B1B864C874A
:102750007E876D87188A1F8601966396EACFEF926F
:10276000FF921F93CF93DF93EC0110E0F12CE12C4B
:102770006A811617B0F083E0689FB0011124AE01A2
:102780004F5E5F4FC7010E942E1E009721F02FEF72
:102790003FEF3A8B298BDF91CF911F91FF90EF9004
:1027A0000895612FCE018DDC61E070E00E941E1D56
:1027B000E816F90608F47C011F5FDACFF89420913F
:1027C000A5033091A60381E02115310509F080E0D1
:1027D000232B09F0789408952F923F924F925F92A5
:1027E0006F927F928F929F92AF92BF92CF92DF9221
:1027F000EF92FF920F931F93CF93DF933C01660EEE
:10280000771EF301828193814C01B12CA12CC091E0
:10281000A703D091A803209769F021E030E06091F0
:10282000A9037091AA038617970710F030E020E003
:10283000232BD1F482E090E0FA01918380838EEF24
:102840009FEFDF91CF911F910F91FF90EF90DF905D
:10285000CF90BF90AF909F908F907F906F905F9040
:102860004F903F902F90089580924302909244029F
:10287000A0924502B092460263E1689F9001699F71
:10288000300D1124C20FD31FF3018181833040F03A
:1028900082E090E0FA019183808386EF9FEFD1CFB1
:1028A0002A012B813C81232BF1F4288139819F81DE
:1028B00091FF2EC0232B09F46FC02091AC039A81A5
:1028C000422F490F5527551FBA0141E050E06138AA
:1028D000710514F050E040E0452B09F45DC02A87F3
:1028E000920F9093AC038150823008F481C066DF70
:1028F000882309F4D8C0F3018181813009F48DC0A7
:1029000008F47BC0823009F4C6C090E080E0ADC01E
:10291000232B09F441C02091AB039A81E22FE90FE8
:10292000FF27FF1F41E050E0ED3FF10514F050E0BC
:1029300040E0452B89F12A87920F9093AB03D3CFC8
:10294000A081B181A20FB31F11966C91060F111DCA
:102950000196295F3F4F8417950794F38D859E85D7
:10296000089F1001099F300C189F300C1124C114CE
:10297000D104D1F48F8184FF17C00E946C1DF5E053
:102980002F0E311C21E08215930508F420E0A701E9
:10299000435F5F4F21110EC082E090E0F20191830E
:1029A000808387EF9FEF4DCF0E946C1D2FEF221A7F
:1029B000320AE8CF88819981E80EF91EF701148365
:1029C0000383FFEFCF1ADF0A7A018A818C151D0479
:1029D00009F00CF48CCFE881F981EE0DFF1D4281E6
:1029E00050E030E020E010E000E090E080E0B3CF85
:1029F000F12CE12CD12CC12CE8CF81E090E09C831C
:102A00008B83F1DA882309F480CF81E090E00E9483
:102A1000700C80E40E947E0C78CF89899A89019697
:102A200061F083E090E09C838B8382E090E00E94E1
:102A3000700C80E40E94780C68CF8D819E8120917B
:102A4000390230913A0282179307D1F460913D0226
:102A500070913E02AE014F5E5F4F80913B029091BC
:102A60003C020E94E61E0097E1F2789422E030E0FA
:102A7000F20131832083892B99F08DEF9FEFE1CE16
:102A800089288A288B2869F6892B59F6CE0167DEBA
:102A9000188A1F86E8CF82E090E09C838B8335CF35
:102AA00090E080E0CECE82E090E0F20191838083DE
:102AB00085EF9FEFC6CE8F929F92AF92BF92CF923B
:102AC000DF92EF92FF920F931F93CF93DF93EA0170
:102AD0008C01060F171FF8018181833098F082E086
:102AE00090E09983888386EF9FEFDF91CF911F91CC
:102AF0000F91FF90EF90DF90CF90BF90AF909F909D
:102B00008F9008958091A7039091A803892B61F07D
:102B100081E090E02091A9033091AA03232B11F4C6
:102B200090E080E0892B39F482E090E099838883FB
:102B30008EEF9FEFDACF42DE882309F4DFC0F80181
:102B40008181813009F495C0E8F0823099F42091B8
:102B5000A9033091AA03E091A703F091A80390E0A4
:102B600080E041E050E02817390709F0BDC03BDAAA
:102B7000811117C0789481E090E09983888390E078
:102B800080E0B3CF2091A9033091AA03E091A7037D
:102B9000F091A80390E080E041E050E02817390769
:102BA00041F481E090E00E94700C80E40E947E0C71
:102BB000E1CF63817481672B11F0548343830196C5
:102BC0007396ECCFE091A703F091A803E00FF11FFB
:102BD0002381348122303105D9F4218932892F3F74
:102BE0003F4FB1F4258136814091390250913A022C
:102BF0002417350761F5AF014F5E5F4F60913D02CD
:102C000070913E0280913B0290913C020E94E61E30
:102C1000EFEFCE1ADE0AEE0AFE0A0D5E1F4F40915C
:102C2000A9035091AA0370E060E0C416D506E60639
:102C3000F7063CF5009731F27894892B09F49BCF85
:102C400082E090E0998388838DEF9FEF4ECFC1148F
:102C5000D104E104F104E1F6232BD1F6CF017FDDAD
:102C6000E091A703F091A803E00FF11F108A1786E7
:102C7000CFCF10E000E090E080E0C12CD12C7601B5
:102C8000CECF0097C9F610E000E0812C912C5401C2
:102C900083E0E82EF12C1AC0E091A703F091A8037D
:102CA000E00FF11F83819481029749F4F482E3825B
:102CB00082E090E00E94700C80E40E94780CFFEFAC
:102CC0008F1A9F0AAF0ABF0A0D5E1F4F8091A9039A
:102CD0009091AA03B0E0A0E088169906AA06BB0668
:102CE000DCF290E080E0A8CF6381748162307105EE
:102CF00011F4548343830196739635CF82E090E0BC
:102D00009983888385EF9FEFF0CE0097B9F48FEF1A
:102D1000FB018083209143023091440243E1429FB2
:102D2000C001439F900D1124E091A703F091A803E7
:102D3000E80FF91F8285FB01818308950C94270C0D
:102D400088E090E0FA019183808390E080E008952C
:102D50001092A6031092A503E7EAF3E086E0DF01F4
:102D60001D928A95E9F782E392E19093A403809300
:102D7000A30308958091A3039091A40308952F9233
:102D80003F924F925F926F927F928F929F92AF92FB
:102D9000BF92CF92DF92EF92FF920F931F93CF9348
:102DA000DF93CDB7DEB72F970FB6F894DEBF0FBE17
:102DB000CDBFF894E091A503F091A6033196F0936E
:102DC000A603E093A50378944090A7035090A8032E
:102DD0004114510409F40CC2E091A903F091AA0333
:102DE000EF2B09F405C22D8749875A876B877C87AB
:102DF00098878F831201B12CA12C10E000E0809104
:102E0000A9039091AA03A816B90618F40115110593
:102E100029F1F8948091A5039091A60301979093CE
:102E2000A6038093A5037894C8012F960FB6F89453
:102E3000DEBF0FBECDBFDF91CF911F910F91FF90ED
:102E4000EF90DF90CF90BF90AF909F908F907F904A
:102E50006F905F904F903F902F9008957101E4180C
:102E6000F508D10117968C91179781FD54C01396E0
:102E70008D919C911497039709F04DC015968D91F3
:102E80009C91EF81F8858E179F0709F044C0B5012A
:102E900090E080E07FD48A832091A7033091A8033B
:102EA0003D832C833D85332309F44CC04C815D81E7
:102EB000452B09F49AC18091A9039091AA03A81601
:102EC000B90608F092C1C501D8D88823E9F06C8111
:102ED0007D816E0D7F1D7D836C83DB011F968D913F
:102EE0009C91892B89F0D12CC12CF12CE12CAC8147
:102EF000BD8112968C9112978E151F0409F094F4DF
:102F000050961C921E921F972A81222321F0B50110
:102F100090E080E041D43FEFA31AB30A43E1240ECE
:102F2000311C6DCFAC81BD81ED91FC91EC0DFD1D8F
:102F30008581968169D6BFEFEB1AFB0AEDE0CE0ED4
:102F4000D11CD5CFEC81FD81309709F44EC1809121
:102F5000A9039091AA03A816B90608F046C1EE0D80
:102F6000FF1DFF87EE87C50188D88B83882339F141
:102F7000AE85BF851F968D919C915097019621E05B
:102F80001D964D915C918417950709F020E02E83E2
:102F90001982712C10E000E0AE85BF8512968C91ED
:102FA000781608F45DC0EE85FF85878590890196C7
:102FB000658576850E942C30908B8787A5CFB1E000
:102FC000BE83E6CF992493946BC01BD6F6019683FB
:102FD000858382C0D601ED90FC90B7E06B9EE00C3B
:102FE000F11C1124F7016381748180818F3F61F1AD
:102FF00021E030E002C0220F331F8A95E2F7C901B9
:10300000092E000CAA0BBB0BFB0140815181628190
:10301000738184239523A623B72321E0892B8A2B50
:103020008B2B09F420E0D4012C93D70111968C91BD
:10303000F60123853485820F932F911D880E991EEA
:103040001486138663949BC0418150E0C4010E94A2
:103050009F30EBCF998206EF1FEFC5C01982C3C026
:10306000F981F111A0CFEDE07E9E70011124AE85B3
:10307000BF85CD90DC90CE0CDF1C15D49D838C8356
:10308000BB81BB2309F49ECF81E0EE85FF852785B8
:103090003089232B09F080E0982E882309F458C04A
:1030A000672D8E859F850DD8D60118969C938E939B
:1030B000179761E070E0C2D4EE85FF8521893289DF
:1030C0002F3F320709F481CFBC01C901C0D6D60118
:1030D00016969C938E931597D60115968D919C917B
:1030E0001697009709F4B6CFEC81FD818E0F9F1FD4
:1030F0001A969C938E931997AE85BF85ED91FC919E
:103100001197EE0EFF1EF701218532851486138676
:103110001A968C91870DD9018D93711016C0EE858A
:10312000FF85878184FF11C049855A856B857C8521
:10313000F9014183528363837483F7018385948506
:103140000496A80FB91F14861386F701B287A187CA
:10315000D60115968D919C911697892B09F443C041
:10316000EE85FF85258136818091390290913A0262
:103170002817390779F019968D909C90612CD6010B
:1031800012968C911297681608F424CF1A969C9286
:103190008E921997BE81BB2309F460CF61E070E085
:1031A000F601878190854AD4D6011796ED90FC9060
:1031B000189715964D915C91E1E0F0E0BA81BB2340
:1031C00011F0F0E0E0E00C811D819C01B501882741
:1031D00099278E1B9F0B6AD38C01892B21F0F60156
:1031E0008581968111D57394D7CE0FEF1FEF8CCECA
:1031F00010E000E00ECE2F923F924F925F926F92BE
:103200007F928F929F92AF92BF92CF92DF92EF9276
:10321000FF920F931F93CF93DF938091A703909119
:10322000A80310E000E0892BA9F0C8DA0AEF1FEF2D
:10323000882381F02090A9033090AA03C091A703AE
:10324000D091A803D12CC12C10E000E02C143D0437
:10325000A9F47894C801DF91CF911F910F91FF904D
:10326000EF90DF90CF90BF90AF909F908F907F9026
:103270006F905F904F903F902F900895C6010E94ED
:103280003D10882309F18B819C810397E9F48F8598
:103290009889892BC9F0B60190E080E07BD221E0CB
:1032A00030E0882311F030E020E044245524421A15
:1032B000530AB12CA12C912C812C8A8188151904D8
:1032C00009F038F4188A1F864FEFC41AD40A63969F
:1032D000BDCFE881F981EA0DFB1D85819681892B9F
:1032E000A1F161E070E087819085A8D33C01DBD239
:1032F0008C01E881F981EA0DFB1D8185928525818C
:103300003681200F311FAC01421B530B9A014781BC
:103310005085421B530B70E060E00E94A830E881AA
:10332000F981EA0DFB1DE780F08445815681930108
:10333000B601C201BBD28C01892B39F0E881F98139
:10334000EA0DFB1D858196815FD45FEF851A950A92
:103350008DE0A80EB11CB1CF31CA789408952F9298
:103360003F924F925F926F927F929F92AF92BF92E5
:10337000CF92DF92EF92FF920F931F93CF93DF9341
:1033800000D000D0CDB7DEB70091A7031091A803FD
:10339000992493940115110509F43EC0A090A90346
:1033A000B090AA030BDA982E8823B1F11092A803EB
:1033B0001092A7031092AA031092A9031092AB03D4
:1033C0001092AC038FEF9FEFDC0180934302909348
:1033D0004402A0934502B093460278947FD31E83A3
:1033E0000D83C12CD12C7601C501B0E0A0E089830A
:1033F0009A83AB83BC8322242A94322C89819A81BC
:10340000AB81BC81C816D906EA06FB06F4F0C801F8
:10341000FBD380E40E947E0C892D26960FB6F8948B
:10342000DEBF0FBECDBFDF91CF911F910F91FF90F7
:10343000EF90DF90CF90BF90AF909F907F906F9074
:103440005F904F903F902F900895AD81BE8115966B
:103450008D919C9116972091390230913A028217F2
:103460009307D1F451968D919C91DFD4ED81FE812B
:1034700080819181B12CA12C412C512C3201892BBE
:1034800089F5BFEFCB1ADB0AEB0AFB0AED81FE815F
:103490007396FE83ED83B2CFC114D104E104F1042D
:1034A00029F7892B19F7ED81FE81818992898F3F58
:1034B000980709F05CD4AD81BE8152963C922E9261
:1034C0005197D4CF8A0D9B1DDC018D919C91009763
:1034D00009F09AD3BFEF4B1A5B0A6B0A7B0AEDE047
:1034E000AE0EB11CAD81BE818D919C91119712964B
:1034F0004C9150E070E060E0441655066606770691
:103500000CF382D3BECFCF93DF93EA0128DF811182
:1035100009C082E090E09983888385EF9FEFDF9177
:10352000CF91089581E090E00E94700C81E090E0DE
:103530009983888390E080E0F2CF11DF1092A4039A
:103540001092A303089542E050E062EC72E00C9404
:103550008E0CFF920F931F93CF93DF938A01EC01A0
:10356000C60FD71FF980B9D20897F816190671F05F
:1035700068F082E090E0F801918380838EEF9FEF06
:10358000DF91CF911F910F91FF9008956C817D8104
:103590008E819F814B810E94230F811108C082E0A0
:1035A00090E0F8019183808384EF9FEFE9CFF98069
:1035B0000E941E0F4F2D50E0BE01685F7F4F0E949A
:1035C0009F3089810E948D0F81E090E0F801918306
:1035D000808390E080E0D4CFDF92EF92FF920F9350
:1035E0001F93CF93DF938A01EC01C60FD71F0E9470
:1035F0001E0F7C01D98071D2DD2059F0029721E0A5
:1036000030E0D816190619F010F030E020E0232B36
:1036100079F482E090E0F801918380838EEF9FEF50
:10362000DF91CF911F910F91FF90EF90DF90089560
:10363000EF2841F482E090E0F8019183808384EFE9
:103640009FEFEECFF9800E941E0F4F2D50E0BE017C
:103650006E5F7F4F0E949F3089810E948D0F81E0B5
:1036600090E0F8019183808390E080E0D9CF83EAF5
:103670009AE19093AE038093AD0308958091AD03DA
:103680009091AE0308950895FC01118210829383F6
:1036900082830895DB011D921C92DC011296ED914C
:1036A000FC9113977183608313967C936E931297AA
:1036B0000895FC0180819181DB018D939C93A08111
:1036C000B181109741F08D919C9191838083892BDA
:1036D00011F4F383E2830895FC0180819181DB0181
:1036E0008D939C93892B11F4738362837183608320
:1036F0000895FC0111821082938382830895CF93F1
:10370000DF931F921F92CDB7DEB71A821982F89409
:10371000BE016F5F7F4F84EB93E0CBDF89819A819D
:10372000009709F071D289819A81892B89F7BE01AE
:103730006F5F7F4F88EB93E0BCDF89819A810097B0
:1037400009F062D289819A81892B89F778940F9048
:103750000F90DF91CF910895CF93DF931F921F9227
:10376000CDB7DEB71A821982F894BE016F5F7F4F22
:1037700080EB93E09EDF89819A81009709F044D223
:1037800089819A81892B89F778940F900F90DF9126
:10379000CF91089581E0089590E080E00895EF9240
:1037A000FF920F931F93CF93DF931F921F92CDB77A
:1037B000DEB71A8219828091AF0307EF1FEF8823CB
:1037C000A1F1F894BE016F5F7F4F88EB93E071DF4A
:1037D000789489819A81EE24E394F12C892B51F419
:1037E000F894BE016F5F7F4F84EB93E062DF7894C3
:1037F000F12CE12C89819A810EEF1FEF0097A9F03F
:10380000FC014281538164E070E013D58C01892B67
:1038100061F0F89469817A81C701880F991F880F38
:10382000991F8C549C4F58DF7894C8010F900F90CB
:10383000DF91CF911F910F91FF90EF9008950F931B
:103840001F93CF93DF9300D01F92CDB7DEB71C82BA
:103850001B821A8219828091AF0307EF1FEF882322
:10386000C1F0AE014D5F5F4F64E070E0CE010196A4
:1038700053D58C01892B69F4E981FA818B819C8174
:1038800093838283F89469817A8180EB93E002DFED
:103890007894C8010F900F900F900F90DF91CF9107
:1038A0001F910F91089558D6049608958F929F9274
:1038B000AF92BF92CF92DF92EF92FF920F931F933E
:1038C000CF93DF931F921F92CDB7DEB71A82198272
:1038D000BC016F5F7F4F6330710598F0AA24AA94F2
:1038E000BA2CC5010F900F90DF91CF911F910F91CE
:1038F000FF90EF90DF90CF90BF90AF909F908F9010
:1039000008954115510551F3480159018A016C018F
:10391000CADF8815990511F7E114F104F9F28E0D4B
:103920009F1DA816B906D0F28091AF038823F1F04D
:10393000F894B501645071099701AE014F5F5F4F74
:10394000C80104967ED55C01892B71F489819A8126
:10395000F80193838283C601880F991F880F991FEE
:10396000B8018C549C4F96DE7894BBCF87EFA82E7D
:10397000BB24BA94B6CFAF92BF92CF92DF92EF92B0
:10398000FF920F931F93CF93DF931F921F92CDB798
:10399000DEB71A821982892B09F047C061157105BB
:1039A00009F443C04115510509F43FC02115310503
:1039B00009F43BC001151105C1F18091AF038823C3
:1039C000B9F179016A015B01F894BE016F5F7F4F25
:1039D00080EB93E06EDE789489819A81009759F1AB
:1039E000DC0112966D917C91A801049643D58C015F
:1039F000E981FA81D501ED93FC938281938104964C
:103A0000F601918380834FDFD7018D939C93C8018A
:103A10000F900F90DF91CF911F910F91FF90EF903A
:103A2000DF90CF90BF90AF9008950FEF1FEFEFCFD3
:103A300007EF1FEFECCF0EEF1FEFE9CFCF93DF9330
:103A4000EC01672B71F491D58C179D0760F084D53C
:103A50002496C80FD91F83D58C0F9D1FDF91CF915E
:103A6000089580D5F1CF90E080E0F8CF0F931F93B9
:103A7000CF93DF932091AF0321112BC08B01EC0179
:103A800084EB93E001DE88EB93E0FEDD80EB93E0D6
:103A9000FBDD97D00097C1F468D570E060E0CEDF21
:103AA00047E452E062E070E0D9D0009769F4809179
:103AB0004702909148026BD5B801CE01A0D3009780
:103AC00019F421E02093AF03DF91CF911F910F9163
:103AD000089584EF9FEFF8CF45C547C5CF93DF9397
:103AE00047D5EC01892B11F40ADE36DECE01DF91D9
:103AF000CF910895CF93DF933BD5EC01892B09F447
:103B0000FEDDCE01DF91CF91089580914702909123
:103B100048020895CF93DF938091AF03D0E0C0E0D7
:103B20008823D1F039D5EC01892BB1F4E8DD14DE1E
:103B300080914702909148021AD1CED1EC01892B95
:103B400059F484EB93E0D5DD88EB93E0D2DD80EB94
:103B500093E0CFDD1092AF03CE01DF91CF910895B6
:103B6000EF92FF920F931F93CF93DF93EC017A01B3
:103B70008B010F5F1F4F0E9DA0010F9D500D1E9DCD
:103B8000500D112470E060E00E94A83090E080E0C9
:103B9000F0E0E0E02FEFE816F90639F4DF91CF917D
:103BA0001F910F91FF90EF9008951A821982288338
:103BB000309711F0D283C1830196FE01C00FD11F4F
:103BC000EACFEEEBF3E085E8DF011D928A95E9F795
:103BD0001092BD031092BC03EAE4F4E0118210825B
:103BE0001582148213821282178216821186108621
:103BF000E6E4F4E0118210821382128290E080E009
:103C0000089590E080E00895009739F1DC018E91ED
:103C1000813041F4E0914804F09149043097E9F093
:103C2000CD011994811119C0F8948FEF8C93809174
:103C30004A0490914B0412969C938E931197B093E3
:103C40004B04A0934A0480914C0490914D0401963A
:103C500090934D0480934C0478940895EF92FF92D2
:103C60000F931F93CF93DF934115510509F47CC047
:103C7000009709F479C06115710509F475C0EA016E
:103C8000AB01BC01F89480914A0490914B04892BBC
:103C900019F581EC93E08C7F6D5F7F4F6C7F9B010A
:103CA0002F5F3F4F249F8001259F100D349F100DE3
:103CB000112420915204309153042115310509F04B
:103CC0003CC0E090BC03F090BD0322E830E02E1928
:103CD0003F092017310730F478942FEF3FEF86EF3C
:103CE0009FEF22C090934B0480934A0450934F045B
:103CF00040934E0450934D0440934C0470935104F0
:103D0000609350041093530400935204009709F0F9
:103D100027DF0E0D1F1D1093BD030093BC03789485
:103D200030E020E090E080E039832883DF91CF917C
:103D30001F910F91FF90EF9008952017310760F2C7
:103D400090934B0480934A0450934F0440934E0445
:103D500050934D0440934C0470935104609350046D
:103D60000097E9F2FDDEDBCF8FEF9FEFDFCF892BEE
:103D700051F5F89410924B0410924A0410924F049B
:103D800010924E0410924D0410924C041092510463
:103D900010925004209152043091530421153105A2
:103DA00071F08091BC039091BD03821B930B9093A3
:103DB000BD038093BC031092530410925204789474
:103DC00090E080E008958FEF9FEF08954115510531
:103DD00049F1009739F16115710521F1F8942091AD
:103DE000460430914704232BB9F4209148043091C4
:103DF0004904232B89F490934704809346047093DD
:103E0000490460934804789421E030E090E080E039
:103E1000FA0131832083089578942FEF3FEF86EFE6
:103E20009FEFF6CF8FEF9FEF0895019769F4F89415
:103E300010924704109246041092490410924804CC
:103E4000789490E080E008958FEF9FEF08956115DA
:103E5000710519F4F0E0E0E011C08130910581F4C2
:103E6000E0914604F09147043097A1F3CB0101960D
:103E70001995009779F3FC0181E08193CF010895B2
:103E8000892B41F780914A0490914B04892B11F3BF
:103E9000809150049091510486179707D8F2F894B6
:103EA00080914C0490914D04009731F0E0914A04C8
:103EB000F0914B04309711F47894CCCF218132816A
:103EC00030934B0420934A04019790934D048093C0
:103ED0004C0411927894D2CFE3E4F4E083E0DF0164
:103EE0001D928A95E9F7EEEBF3E085E8DF011D927C
:103EF0008A95E9F71092BD031092BC03EAE4F4E05E
:103F00008AE0DF011D928A95E9F7E6E4F4E084E0B7
:103F1000DF011D928A95E9F790E080E00895CF9344
:103F2000DF93C0914902D0914A02CF3FDC0759F498
:103F3000DDD390934A028093490297FF09C0D09342
:103F40004A02C093490284EF9FEFDF91CF91089519
:103F500090E080E0FACF8230910528F480935404F9
:103F600090E080E008958FEF9FEF08954F925F9269
:103F70006F927F92AF92BF92CF92DF92EF92FF92B9
:103F80000F931F93CF93DF931F921F92CDB7DEB78E
:103F90001A821982009709F479C06115710509F434
:103FA00075C02091490230914A0207EF1FEF2F3F61
:103FB0003F4F09F445C06B015C01412C512C32018B
:103FC000F12CE12C10E000E09E012F5F3F4FA60195
:103FD0004E195F09B5016E0D7F1D809149029091C8
:103FE0004A02E8D3892B09F04BC089819A81009756
:103FF00041F4E114F10429F420915404222309F43A
:1040000042C0E80EF91EEC14FD04D0F480E8481616
:1040100084E858068EE16806710420F560E070E0DF
:10402000CB010E94E32A2AE0420E511C611C711C44
:104030000A3F4FEF140721F0043F8FEF1807A1F458
:10404000C8010F900F90DF91CF911F910F91FF90BA
:10405000EF90DF90CF90BF90AF907F906F905F9088
:104060004F90089501EF1FEF81E090E0013F2FEFA7
:10407000120711F090E080E0892B09F4A5CFE0CF82
:1040800004EF1FEFDDCF0AEF1FEFDACF0FEF1FEFC7
:10409000D7CF4F925F926F927F92AF92BF92CF92A3
:1040A000DF92EF92FF920F931F93CF93DF931F92B4
:1040B0001F92CDB7DEB71A821982009709F479C032
:1040C0006115710509F475C02091490230914A02C9
:1040D00007EF1FEF2F3F3F4F09F445C06B015C0115
:1040E000412C512C3201F12CE12C10E000E09E011A
:1040F0002F5F3F4FA6014E195F09B5016E0D7F1D61
:104100008091490290914A0208D3892B09F04BC053
:1041100089819A81009741F4E114F10429F42091F6
:104120005404222309F442C0E80EF91EEC14FD04E5
:10413000D0F480E4481682E458068FE068067104E3
:1041400020F560E070E0CB010E94E32A2AE0420EF5
:10415000511C611C711C0E3F4FEF140721F0043FEE
:104160008FEF1807A1F4C8010F900F90DF91CF9146
:104170001F910F91FF90EF90DF90CF90BF90AF9085
:104180007F906F905F904F90089502EF1FEF81E056
:1041900090E0023F2FEF120711F090E080E0892BB2
:1041A00009F4A5CFE0CF04EF1FEFDDCF0EEF1FEF37
:1041B000DACF0FEF1FEFD7CF8091490290914A02DB
:1041C0008F3F980749F08AD2892B49F48FEF9FEFF0
:1041D00090934A028093490290E080E0089584EF32
:1041E0009FEF0895FC01680F791F90E080E0E617CB
:1041F000F70709F408952191820F911DF8CF2091BE
:104200005504211113C08BDE009791F410925B04CA
:1042100010925A04109259041092580410925704A4
:104220001092560421E020935504089584EF9FEFE7
:104230000895AF92BF92CF92DF92EF92FF920F93C9
:104240001F93CF93DF93009709F460C04630510568
:1042500008F45CC020915504C7EFDFEF222309F476
:1042600049C08C01060F171FF801C080D180C1140E
:10427000D10409F44EC096012A5F3F4F42175307FD
:1042800008F447C07C0180915A0490915B049383A9
:104290008283B6016C5F7F4F5801A60EB71EC8011E
:1042A000A1DFF5019183808364E070E0C8015EDEE8
:1042B000EC01892BF9F481E090E04DDEB601C801F4
:1042C000049654DEEC01892B91F462E070E0C501A4
:1042D0004DDEEC01892B59F4C70196DC80915A041C
:1042E00090915B04019690935B0480935A0490E054
:1042F00080E031DECE01DF91CF911F910F91FF90D1
:10430000EF90DF90CF90BF90AF900895CFEFDFEFA9
:10431000F1CFC9EFDFEFEECF6F927F928F929F9236
:10432000AF92BF92CF92DF92EF92FF920F931F93C3
:10433000CF93DF9300D01F92CDB7DEB7009709F47B
:104340007AC04115510509F476C02091550407EF54
:104350001FEF222309F44DC03A017B015C0164E0A8
:1043600070E0CE01019695DE8C01892B09F041C0E9
:1043700009811A810115110509F45AC0480186E026
:10438000880E911CB701680D791D80914B029091A8
:104390004C025DDD6C01009709F450C0A70170E08C
:1043A00060E00E94A83089819A81AB81BC81EC0CCD
:1043B000FD1CF70181939193A193B1937F0181E05B
:1043C00090E0C9DDB801C70164DE892B31F562E0F8
:1043D00070E0C701800F911F5CDE8C01892BE9F42E
:1043E00090E080E0B8DDF501D182C082F3019182D6
:1043F0008082C8010F900F900F900F90DF91CF91A6
:104400001F910F91FF90EF90DF90CF90BF90AF90F2
:104410009F908F907F906F90089590E080E09BDD5B
:10442000F50111821082F30111821082C601ECDBCA
:1044300009EF1FEFDECF0FEF1FEFDBCF06EF1FEF10
:10444000D8CF0097A1F04115510589F0211531050C
:1044500071F0F90136966E177F0748F0DC012D9355
:104460003C93DA01ED93FC9390E080E008958FEFA8
:104470009FEF0895AF92BF92CF92DF92EF92FF929B
:104480000F931F93CF93DF93009709F45FC04115FB
:10449000510509F45BC06530710508F457C02091DF
:1044A0005504C7EFDFEF222391F1DC01CD90DC90C2
:1044B00011971296ED91FC9196012A5F3F4FC9EF3B
:1044C000DFEF2617370719F5C0915604D09157042E
:1044D000209749F521E030E03093570420935604AB
:1044E0007A018C01F0935904E09358045601B4E02A
:1044F000AB0EB11CB50176DE0A0D1B1DF801208143
:1045000031818217930729F5D701CD92DC92CE0134
:10451000DF91CF911F910F91FF90EF90DF90CF909F
:10452000BF90AF90089520915804309159042F5FA7
:104530003F4FCCEFDFEFE217F30790F2CBEFDFEF67
:104540002E173F0768F2D0E0C0E0CACFCFEFDFEF11
:10455000DECFC3EFDFEFDBCF84E090E0089582E0B1
:1045600090E008958CEF9FEF089580E290E0089529
:1045700010925B0410925A0410925904109258043D
:10458000109257041092560490E080E008959093A2
:104590004C0280934B02089580915504882391F03A
:1045A0000BDE009789F410925B0410925A0410926B
:1045B0005904109258041092570410925604109205
:1045C0005504089590E080E00895009749F0611542
:1045D000710531F0FC0111821082FB011182108201
:1045E0000895F3CF26E030E040E855E260E070E067
:1045F00090E080E000C08130910571F01CF4892BBF
:1046000039F008958230910551F0039759F00895DB
:104610008EEF94E00C94142D8BE995E0FBCF88E3AA
:1046200096E0F8CF85ED96E0F5CF1F920F920FB68A
:104630000F9211240BB60F922F933F934F935F93DA
:104640006F937F938F939F93AF93BF93EF93FF935A
:1046500086E997EE9093850080938400BFD0FF9108
:10466000EF91BF91AF919F918F917F916F915F91EA
:104670004F913F912F910F900BBE0F900FBE0F9057
:104680001F90189586E997EE90938500809384009B
:10469000AFE6B0E08C918E7F8C93E0E8F0E0808113
:1046A0008C7F8083E1E8F0E08081877E8083808159
:1046B0008460808380818C7F80838C9181608C93E7
:1046C0000895EFE6F0E0808190819E7F9083817075
:1046D000089581E0089510925C04089568EE73E0F7
:1046E00080E090E070D790E080E0089526E030E030
:1046F00040E050E16EE070E090E080E07CDF8EEF23
:1047000094E00E944A2C892B29F08EEF94E00E94BD
:10471000642CF5CF90E080E00895CF92DF92EF9285
:10472000FF920F931F93CF93DF936B017A01E901FF
:10473000198218828EEF94E00E944A2C892B79F11D
:104740008601CC24C39482E0D82E80915C04811130
:1047500011C08EEF94E00E94642C0297B1F7C092D2
:104760005C04F801D1928F01888199810196998327
:104770008883EBCF888199818E159F0580F48EEF19
:1047800094E00E94642C8F3F9807A1F3F801819375
:104790008F0188819981019699838883EBCF90E07E
:1047A00080E0DF91CF911F910F91FF90EF90DF900C
:1047B000CF9008950F931F93CF93DF93EA01890160
:1047C0008EEF94E00E94A42FF801D183C08390E083
:1047D00080E0DF91CF911F910F910895CF92DF92EA
:1047E000EF92FF92CF93DF9380915D0491E0980F59
:1047F00090935D04882379F021E030E030935F04EA
:1048000020935E0480935D04DF91CF91FF90EF9041
:10481000DF90CF9008957894C0914E02D0914F02CE
:104820006E8D7F8D88A199A1B9D120E030E040E85C
:104830005FE4BDD26B017C016A8D7B8D8C8D9D8D7B
:10484000ADD19B01AC01C701B60199D07BD16B0101
:104850007C010E943203B701A60190E080E00E9433
:104860005502F89480915D048150CCCF0F931F9333
:10487000CF93DF931092940710929307DAD6B2DEAB
:10488000C0914E02D0914F02198218826FEF7FEFD4
:10489000CB010E94D80270E060E090E080E00E94CE
:1048A0005901009709F03AC00E948F05F894789456
:1048B000BE016A5D7F4F8A819B810E945C01892BCA
:1048C00059F46FEF7FEFCB010E94EB010E94D202FF
:1048D000882311F081E08AA7F894D4DE0E94D502E3
:1048E000882311F080E008C00E94D2028111FACF23
:1048F00081E09AA59111F6CF8093930778940E9456
:104900006B0C8C0178948091930781110CC00E94EC
:104910002F060E94B702F89490E080E0DF91CF91DB
:104920001F910F9108950E94B5020E94D50288231D
:10493000D9F081E0809394079091940781E09111E0
:1049400080E080939307809194078111BADE013053
:10495000110529F40E946B0C892B09F4BCDE0E941E
:104960006B0C8C01B6DECFCF0E94D2028111E1CF59
:1049700081E09AA59111DECF80E0DCCF5058BB27B3
:10498000AA270ED0BFC1B0D130F0B5D120F031F49C
:104990009F3F11F41EF4A5C10EF4E095E7FB72C130
:1049A000E92FC1D180F3BA1762077307840795070F
:1049B00018F071F49EF5F0C10EF4E0950B2EBA2FAD
:1049C000A02D0B01B90190010C01CA01A001112415
:1049D000FF27591B99F0593F50F4503E68F11A16C1
:1049E000F040A22F232F342F4427585FF3CF469552
:1049F00037952795A795F0405395C9F77EF41F1674
:104A0000BA0B620B730B840BBAF09150A1F0FF0F3D
:104A1000BB1F661F771F881FC2F70EC0BA0F621F29
:104A2000731F841F48F4879577956795B795F79519
:104A30009E3F08F0B3CF9395880F08F09927EE0FAB
:104A400097958795089591D180F09F3740F4911103
:104A50000EF4A3C160E070E080E89FE3089526F0C3
:104A60001B16611D711D811D13C12DC1E7D008F4F6
:104A700081E008950CD046C13ED140F035D130F0F0
:104A800021F45F3F19F0FEC0511187C12AC14BD1FB
:104A900098F39923C9F35523B1F3951B550BBB2705
:104AA000AA2762177307840738F09F5F5F4F220FB2
:104AB000331F441FAA1FA9F333D00E2E3AF0E0E8AB
:104AC00030D091505040E695001CCAF729D0FE2FF7
:104AD00027D0660F771F881FBB1F26173707480789
:104AE000AB07B0E809F0BB0B802DBF01FF2793583F
:104AF0005F4F2AF09E3F510568F0C4C04EC15F3F32
:104B0000ECF3983EDCF3869577956795B795F79526
:104B10009F5FC9F7880F911D9695879597F908951E
:104B2000E1E0660F771F881FBB1F621773078407BA
:104B3000BA0720F0621B730B840BBA0BEE1F88F7C9
:104B4000E0950895F8D088F09F5790F0B92F9927F5
:104B5000B751A0F0D1F0660F771F881F991F1AF088
:104B6000BA95C9F712C0B13081F016D1B1E00895FD
:104B700013C1672F782F8827B85F39F0B93FCCF37E
:104B8000869577956795B395D9F73EF4909580957E
:104B9000709561957F4F8F4F9F4F0895E89409C09E
:104BA00097FB3EF490958095709561957F4F8F4F60
:104BB0009F4F9923A9F0F92F96E9BB279395F69576
:104BC000879577956795B795F111F8CFFAF4BB0FF4
:104BD00011F460FF1BC06F5F7F4F8F4F9F4F16C058
:104BE000882311F096E911C0772321F09EE8872FE2
:104BF000762F05C0662371F096E8862F70E060E09E
:104C00002AF09A95660F771F881FDAF7880F969516
:104C1000879597F90895A9D080F09F3740F49111B6
:104C20000EF0BBC060E070E080E89FEB089526F4D2
:104C30001B16611D711D811D2BC045C0990F0008F9
:104C4000550FAA0BE0E8FEEF16161706E807F9075E
:104C5000C0F012161306E407F50798F0621B730BF9
:104C6000840B950B39F40A2661F0232B242B252B7A
:104C700021F408950A2609F4A140A6958FEF811D1D
:104C8000811D089597F99F6780E870E060E00895BE
:104C9000882371F4772321F09850872B762F07C053
:104CA000662311F499270DC09051862B70E060E0C7
:104CB0002AF09A95660F771F881FDAF7880F969566
:104CC000879597F908959F3F31F0915020F487958B
:104CD00077956795B795880F911D9695879597F964
:104CE00008959FEF80EC089500240A941616170685
:104CF00018060906089500240A94121613061406CD
:104D000005060895092E0394000C11F4882352F02F
:104D1000BB0F40F4BF2B11F460FF04C06F5F7F4FE7
:104D20008F4F9F4F089557FD9058440F551F59F0CE
:104D30005F3F71F04795880F97FB991F61F09F3F88
:104D400079F087950895121613061406551FF2CFB1
:104D50004695F1DF08C0161617061806991FF1CF01
:104D600086957105610508940895E5DFA0F0BEE71A
:104D7000B91788F4BB279F3860F41616B11D672F4A
:104D8000782F8827985FF7CF869577956795B11D1F
:104D900093959639C8F30895E894BB27662777273B
:104DA000CB0197F908954ADF08F48FEF08950BD0EF
:104DB000A9CF9ADF28F09FDF18F0952309F062CF82
:104DC00090CF1124EACFAFDFA0F3959FD1F3950FD9
:104DD00050E0551F629FF001729FBB27F00DB11D7F
:104DE000639FAA27F00DB11DAA1F649F6627B00D0F
:104DF000A11D661F829F2227B00DA11D621F739FF8
:104E0000B00DA11D621F839FA00D611D221F749F05
:104E10003327A00D611D231F849F600D211D822F4C
:104E2000762F6A2F11249F5750408AF0E1F0882393
:104E30004AF0EE0FFF1FBB1F661F771F881F9150A0
:104E40005040A9F79E3F510570F01CCFA6CF5F3FA1
:104E5000ECF3983EDCF3869577956795B795F795D3
:104E6000E7959F5FC1F7FE2B880F911D969587955B
:104E700097F908959F9305D00F9007FCEE5F28C027
:104E800030CF59DFE8F3E894E0E0BB279F57F0F01C
:104E90002AED3FE049EC06C0EE0FBB0F661F771FFF
:104EA000881F28F0B23A62077307840728F0B25AC5
:104EB000620B730B840BE3959A9572F7803830F48C
:104EC0009A95BB0F661F771F881FD2F79048FDCEBB
:104ED000EF93E0FF06C0A2EA2AED3FE049EC5FEB6A
:104EE0005FDD10DF0F90039401FC9058E4EEF0E0DA
:104EF00000C09F938F937F936F93FF93EF939B01DA
:104F0000AC0155DFEF91FF9105D02F913F914F916B
:104F10005F914DCFDF93CF931F930F93FF92EF924B
:104F2000DF927B018C01689405C0DA2EEF014BDF24
:104F3000FE01E894A5912591359145915591AEF3E7
:104F4000EF012EDDFE019701A801DA9479F7DF90D9
:104F5000EF90FF900F911F91CF91DF910895CF9225
:104F6000DF92EF92FF920F931F93CF93DF936B012A
:104F70007A01EC01CF59DB4F28813CE0389F80015A
:104F8000399F100D112427FF24C0FB0111821082CC
:104F900088818F5F888388819801280F311D87FD64
:104FA0003A95C90120916004F6012817190629F0E5
:104FB00024F088818C300CF43BC080819181049670
:104FC00080349C4908F473C0F60180819181049675
:104FD00070C088819801280F311D87FD3A95C9015D
:104FE000209160042817190699F294F28881A8018B
:104FF000480F511D87FD5A95FA01EE0FFF1FE40F70
:10500000F51FEB59FB4F808186FFC2CF8881F801E5
:10501000E80FF11D87FDFA95CF01EE0FFF1FE80F96
:10502000F91FEB59FB4F808160E08F7306D4B0CF3E
:10503000808191812881A801420F511D27FD5A9539
:105040009A01FA01EE0FFF1FE20FF31FEB59FB4F1E
:1050500021813281820F931FF701918380838881A0
:105060009801280F311D87FD3A95F901EE0FFF1FBA
:10507000E20FF31FEB59FB4F808186FF1FC0888131
:10508000080F111D87FD1A95F801EE0FFF1FE00FA5
:10509000F11FEB59FB4F808161E08F73DF91CF915E
:1050A0001F910F91FF90EF90DF90CF90C6C380E4E7
:1050B0009CE9F701918380838FEF8883DF91CF9103
:1050C0001F910F91FF90EF90DF90CF9008951F9266
:1050D0000F920FB60F9211240BB60F922F933F939E
:1050E0004F935F936F937F938F939F93AF93BF93F0
:1050F000EF93FF9348E850E064E870E081E090E0CF
:105100002EDFFF91EF91BF91AF919F918F917F9192
:105110006F915F914F913F912F910F900BBE0F9028
:105120000FBE0F901F9018951F920F920FB60F92FF
:1051300011240BB60F922F933F934F935F936F936E
:105140007F938F939F93AF93BF93EF93FF9348E920
:1051500050E064E970E082E090E001DFFF91EF91C0
:10516000BF91AF919F918F917F916F915F914F917F
:105170003F912F910F900BBE0F900FBE0F901F907D
:1051800018951F920F920FB60F9211240BB60F9223
:105190002F933F934F935F936F937F938F939F933F
:1051A000AF93BF93EF93FF9348EA50E064EA70E057
:1051B00083E090E0D4DEFF91EF91BF91AF919F919A
:1051C0008F917F916F915F914F913F912F910F90B0
:1051D0000BBE0F900FBE0F901F9018951F920F924D
:1051E0000FB60F9211240BB60F922F933F934F934C
:1051F0005F936F937F938F939F93AF93BF93EF933F
:10520000FF9348E251E064E271E090E080E0A7DEC5
:10521000FF91EF91BF91AF919F918F917F916F918E
:105220005F914F913F912F910F900BBE0F900FBE4A
:105230000F901F901895FC0190916004903398F4A2
:1052400081E0890F809360049083892F90E0FC01B6
:10525000EE0FFF1FE80FF91FEB59FB4F88EB9BE0A8
:105260009283818308958FEF80830895DF92EF9278
:10527000FF920F931F93CF93DF93EC01D62E7A0109
:1052800089018881803308F065C061E08D2D99D255
:105290008881282F30E0F901EE0FFF1FE20FF31F86
:1052A000EB59FB4F9D2D9F736081607C692B608360
:1052B00020E232E02E193F0937FF02C02D5F3F4F39
:1052C0003595279535952795298320E639E0201BCC
:1052D000310B37FF02C02D5F3F4F35952795359530
:1052E00027952A832CE0622FABD6829FB001112430
:1052F00030E020E0AB01420F531FFA01EE0FFF1F19
:10530000E40FF51FEB59FB4F908196FD16C02F5F00
:105310003F4F2C30310571F7813029F51092800014
:1053200082E0809381001092850010928400B19AEF
:1053300080916F00826080936F00E8818E2F90E0F3
:10534000FC01EE0FFF1FE80FF91FEB59FB4F8081A7
:10535000806480838881DF91CF911F910F91FF90AE
:10536000EF90DF900895823061F410929000809366
:105370009100109295001092940088BB8093710068
:10538000DCCF833069F41092A00082E08093A1000A
:105390001092A5001092A40089BB80937200CDCF1B
:1053A0008111CBCF1092200182E0809321011092D5
:1053B0002501109224018ABB80937300BECF20E6A2
:1053C00039E040E252E052CFDC01EC91E03390F55D
:1053D00011968C91119728E830E0281B310987FD40
:1053E0003395220F331F220F331F6217730784F088
:1053F00012968C9128E532E0281B310987FD339500
:10540000220F331F220F331F621773070CF49B0107
:1054100022503109220F331F4FB7F8948E2F90E09E
:10542000FC01EE0FFF1FE80FF91FEB59FB4F328312
:1054300021834FBF0895AF92BF92CF92DF92EF9238
:10544000FF920F931F93CF93DF93EC01603282E0C2
:1054500078070CF03DC0653B710514F064EB70E01B
:10546000898148E8A42EB12CA81AB10887FDB3940D
:10547000AA0CBB1CAA0CBB1C0B2C000CCC08DD0816
:1054800077FF02C070E060E0072E000C880B990BDC
:105490002A8108E512E0021B110927FD1395000F70
:1054A000111F000F111F012E000C220B330B3F9315
:1054B0002F931F930F9314EBE12EF12C00E010E0DB
:1054C00020E030E0A9016DD50F900F900F900F9064
:1054D000CE01DF91CF911F910F91FF90EF90DF9060
:1054E000CF90BF90AF9070CF1F920F920FB60F92D8
:1054F00011242F933F938F939F93AF93BF938091EA
:10550000F6049091F704A091F804B091F904309159
:10551000F50423E0230F2D3758F50196A11DB11D89
:105520002093F5048093F6049093F704A093F80475
:10553000B093F9048091FA049091FB04A091FC04CB
:10554000B091FD040196A11DB11D8093FA049093C2
:10555000FB04A093FC04B093FD04BF91AF919F9115
:105560008F913F912F910F900FBE0F901F90189524
:1055700026E8230F0296A11DB11DD2CF3FB7F894A4
:105580008091FA049091FB04A091FC04B091FD0479
:1055900026B5A89B05C02F3F19F00196A11DB11D8E
:1055A0003FBFBA2FA92F982F8827BC01CD01620FCA
:1055B000711D811D911D42E0660F771F881F991F85
:1055C0004A95D1F708958F929F92AF92BF92CF9252
:1055D000DF92EF92FF926B017C01D0DF4B015C0107
:1055E000C114D104E104F104D9F01AD5C7DF681958
:1055F00079098A099B09683E73408105910580F30A
:1056000021E0C21AD108E108F10888EE880E83E093
:10561000981EA11CB11CC114D104E104F10431F79E
:10562000FF90EF90DF90CF90BF90AF909F908F90C2
:105630000895789484B5826084BD84B5816084BD0A
:1056400085B5826085BD85B5816085BDEEE6F0E0FB
:10565000808181608083E1E8F0E010828081826057
:105660008083808181608083E0E8F0E080818160D8
:105670008083E1EBF0E0808184608083E0EBF0E008
:10568000808181608083E1E9F0E0808182608083B5
:10569000808181608083E0E9F0E0808181608083A7
:1056A000E1EAF0E080818260808380818160808394
:1056B000E0EAF0E0808181608083E1E2F1E08081D6
:1056C00082608083808181608083E0E2F1E080817C
:1056D00081608083EAE7F0E080818460808380815C
:1056E0008260808380818160808380818068808304
:1056F0001092C10008958150823108F059C0E82FFE
:10570000F0E08827EA57F44D8F4FF8C4A62BAA2B58
:10571000982B9E2BA22BD82BAD2BB32BB72BBD2BAD
:10572000C12BC52BCB2BCF2BD82BD32BD92BDD2BA0
:10573000809180008F778093800008958091800011
:105740008F7DF9CF80918000877FF5CF84B58F77EB
:1057500084BD089584B58F7DFBCF8091B0008F7795
:105760008093B00008958091B0008F7DF9CF809133
:1057700090008F77809390000895809190008F7DA6
:10578000F9CF80919000877FF5CF8091A0008F772F
:105790008093A00008958091A0008F7DF9CF809123
:1057A000A000877FF5CF809120018F778093200123
:1057B0000895809120018F7DF9CF80912001877F0E
:1057C000F5CFCF93DF9390E0FC01E85BFE4F24918F
:1057D00082579E4FFC0184918823C9F090E0880F86
:1057E000991FFC01E251FE4FA591B491FC01EC52CE
:1057F000FE4FC591D49161110DC09FB7F8948C9163
:10580000209582238C938881282328839FBFDF9152
:10581000CF910895623051F49FB7F8943C91822F54
:10582000809583238C93E8812E2BEFCF8FB7F8944C
:10583000EC912E2B2C938FBFEACF1F93CF93DF9346
:10584000282F30E0F901EE5FFE4F8491F901E85B0B
:10585000FE4FD491F901E257FE4FC491CC23A1F041
:10586000162F811148DFEC2FF0E0EE0FFF1FEC52F6
:10587000FE4FA591B4918FB7F894EC91111108C027
:10588000D095DE23DC938FBFDF91CF911F910895D8
:10589000DE2BF8CFFC01918D228D892F90E0805C6A
:1058A0009F4F821B91098F7399270895FC01918D59
:1058B000828D981731F0828DE80FF11D858D90E073
:1058C00008958FEF9FEF0895FC01918D828D9817B9
:1058D00061F0A28DAE0FBF2FB11D5D968C91928DA0
:1058E0009F5F9F73928F90E008958FEF9FEF0895D1
:1058F000FC01538D448D252F30E0842F90E0821BD6
:10590000930B541710F0CF96089501970895FC015A
:10591000A48DA80FB92FB11DA35ABF4F2C91848D10
:1059200090E001968F739927848FA689B7892C936D
:10593000A089B1898C91837080648C93938D848DC0
:10594000981306C00288F389E02D80818F7D8083C3
:105950000895CF93DF93EC01888D8823B1F0AA8955
:10596000BB89E889F9898C9185FD03C0808186FD1A
:105970000CC00FB607FCF7CF8C9185FFF2CF80816A
:1059800085FFEDCFCE01C3DFEACFDF91CF91089540
:10599000EF92FF920F931F93CF93DF93EC0181E07F
:1059A000888F9B8D8C8D98131AC0E889F989808126
:1059B00085FF15C09FB7F894EE89FF896083E88959
:1059C000F98980818370806480839FBF81E090E04B
:1059D000DF91CF911F910F91FF90EF900895F62ED8
:1059E0000B8D10E00F5F1F4F0F731127E02E8C8D72
:1059F0008E110BC00FB607FCFACFE889F9898081B8
:105A000085FFF5CFCE0183DFF2CFEB8DEC0FFD2FBD
:105A1000F11DE35AFF4FF0829FB7F8940B8FEA898C
:105A2000FB8980818062D0CFCF92DF92EF92FF928C
:105A30001F93CF93DF93EC016A017B01122FE8895A
:105A4000F98982E08083C11481EED806E104F10473
:105A500099F060E079E08DE390E0A701960110D322
:105A60002150310941095109569547953795279598
:105A7000211580E1380790F0E889F989108260E803
:105A800074E88EE190E0A7019601FAD22150310925
:105A9000410951095695479537952795EC85FD8520
:105AA0003083EE85FF852083188EEC89FD89108375
:105AB000EA89FB89808180618083EA89FB89808112
:105AC00088608083EA89FB89808180688083EA8995
:105AD000FB8980818F7D8083DF91CF911F91FF9023
